{
  "_format": "hh-sol-artifact-1",
  "contractName": "L1ZKXContract",
  "sourceName": "contracts/L1ZKXContract.sol",
  "abi": [
    {
      "inputs": [
        {
          "internalType": "contract IStarknetCore",
          "name": "starknetCore_",
          "type": "address"
        },
        {
          "internalType": "uint256",
          "name": "assetContractAddress_",
          "type": "uint256"
        },
        {
          "internalType": "uint256",
          "name": "withdrawalRequestContractAddress_",
          "type": "uint256"
        }
      ],
      "stateMutability": "nonpayable",
      "type": "constructor"
    },
    {
      "anonymous": false,
      "inputs": [
        {
          "indexed": true,
          "internalType": "address payable",
          "name": "recipient",
          "type": "address"
        },
        {
          "indexed": false,
          "internalType": "uint256",
          "name": "amount",
          "type": "uint256"
        }
      ],
      "name": "LogAdminTransferEth",
      "type": "event"
    },
    {
      "anonymous": false,
      "inputs": [
        {
          "indexed": true,
          "internalType": "address",
          "name": "recipient",
          "type": "address"
        },
        {
          "indexed": false,
          "internalType": "uint256",
          "name": "amount",
          "type": "uint256"
        },
        {
          "indexed": true,
          "internalType": "address",
          "name": "tokenAddress",
          "type": "address"
        }
      ],
      "name": "LogAdminTransferFunds",
      "type": "event"
    },
    {
      "anonymous": false,
      "inputs": [
        {
          "indexed": false,
          "internalType": "uint256",
          "name": "oldAssetContract",
          "type": "uint256"
        },
        {
          "indexed": false,
          "internalType": "uint256",
          "name": "newAssetContract",
          "type": "uint256"
        }
      ],
      "name": "LogAssetContractAddressChanged",
      "type": "event"
    },
    {
      "anonymous": false,
      "inputs": [
        {
          "indexed": false,
          "internalType": "uint256",
          "name": "ticker",
          "type": "uint256"
        },
        {
          "indexed": false,
          "internalType": "uint256",
          "name": "collateralId",
          "type": "uint256"
        }
      ],
      "name": "LogAssetListUpdated",
      "type": "event"
    },
    {
      "anonymous": false,
      "inputs": [
        {
          "indexed": false,
          "internalType": "uint256",
          "name": "ticker",
          "type": "uint256"
        },
        {
          "indexed": false,
          "internalType": "uint256",
          "name": "collateralId",
          "type": "uint256"
        }
      ],
      "name": "LogAssetRemovedFromList",
      "type": "event"
    },
    {
      "anonymous": false,
      "inputs": [
        {
          "indexed": false,
          "internalType": "contract IStarknetCore",
          "name": "starknetCore",
          "type": "address"
        },
        {
          "indexed": false,
          "internalType": "uint256",
          "name": "assetContractAddress",
          "type": "uint256"
        },
        {
          "indexed": false,
          "internalType": "uint256",
          "name": "withdrawalRequestContractAddress",
          "type": "uint256"
        }
      ],
      "name": "LogContractInitialized",
      "type": "event"
    },
    {
      "anonymous": false,
      "inputs": [
        {
          "indexed": true,
          "internalType": "address",
          "name": "sender",
          "type": "address"
        },
        {
          "indexed": false,
          "internalType": "uint256",
          "name": "amount",
          "type": "uint256"
        },
        {
          "indexed": true,
          "internalType": "uint256",
          "name": "collateralId",
          "type": "uint256"
        },
        {
          "indexed": true,
          "internalType": "uint256",
          "name": "l2Recipient",
          "type": "uint256"
        },
        {
          "indexed": false,
          "internalType": "bytes32",
          "name": "msgHash",
          "type": "bytes32"
        }
      ],
      "name": "LogDeposit",
      "type": "event"
    },
    {
      "anonymous": false,
      "inputs": [
        {
          "indexed": true,
          "internalType": "address",
          "name": "sender",
          "type": "address"
        },
        {
          "indexed": true,
          "internalType": "uint256",
          "name": "l2Recipient",
          "type": "uint256"
        },
        {
          "indexed": true,
          "internalType": "uint256",
          "name": "collateralId",
          "type": "uint256"
        },
        {
          "indexed": false,
          "internalType": "uint256",
          "name": "amount",
          "type": "uint256"
        },
        {
          "indexed": false,
          "internalType": "uint256",
          "name": "nonce",
          "type": "uint256"
        }
      ],
      "name": "LogDepositCancelRequest",
      "type": "event"
    },
    {
      "anonymous": false,
      "inputs": [
        {
          "indexed": true,
          "internalType": "address",
          "name": "sender",
          "type": "address"
        },
        {
          "indexed": true,
          "internalType": "uint256",
          "name": "l2Recipient",
          "type": "uint256"
        },
        {
          "indexed": true,
          "internalType": "uint256",
          "name": "collateralId",
          "type": "uint256"
        },
        {
          "indexed": false,
          "internalType": "uint256",
          "name": "amount",
          "type": "uint256"
        },
        {
          "indexed": false,
          "internalType": "uint256",
          "name": "nonce",
          "type": "uint256"
        }
      ],
      "name": "LogDepositReclaimed",
      "type": "event"
    },
    {
      "anonymous": false,
      "inputs": [
        {
          "indexed": true,
          "internalType": "uint256",
          "name": "ticker",
          "type": "uint256"
        },
        {
          "indexed": true,
          "internalType": "address",
          "name": "tokenContractAddress",
          "type": "address"
        }
      ],
      "name": "LogTokenContractAddressUpdated",
      "type": "event"
    },
    {
      "anonymous": false,
      "inputs": [
        {
          "indexed": true,
          "internalType": "address",
          "name": "recipient",
          "type": "address"
        },
        {
          "indexed": true,
          "internalType": "uint256",
          "name": "ticker",
          "type": "uint256"
        },
        {
          "indexed": false,
          "internalType": "uint256",
          "name": "amount",
          "type": "uint256"
        },
        {
          "indexed": false,
          "internalType": "uint256",
          "name": "requestId",
          "type": "uint256"
        },
        {
          "indexed": false,
          "internalType": "bytes32",
          "name": "msgHash",
          "type": "bytes32"
        }
      ],
      "name": "LogWithdrawal",
      "type": "event"
    },
    {
      "anonymous": false,
      "inputs": [
        {
          "indexed": false,
          "internalType": "uint256",
          "name": "oldWithdrawalContract",
          "type": "uint256"
        },
        {
          "indexed": false,
          "internalType": "uint256",
          "name": "newWithdrawalContract",
          "type": "uint256"
        }
      ],
      "name": "LogWithdrawalRequestContractChanged",
      "type": "event"
    },
    {
      "anonymous": false,
      "inputs": [
        {
          "indexed": true,
          "internalType": "address",
          "name": "previousOwner",
          "type": "address"
        },
        {
          "indexed": true,
          "internalType": "address",
          "name": "newOwner",
          "type": "address"
        }
      ],
      "name": "OwnershipTransferred",
      "type": "event"
    },
    {
      "inputs": [],
      "name": "assetContractAddress",
      "outputs": [
        {
          "internalType": "uint256",
          "name": "",
          "type": "uint256"
        }
      ],
      "stateMutability": "view",
      "type": "function"
    },
    {
      "inputs": [
        {
          "internalType": "uint256",
          "name": "ticker_",
          "type": "uint256"
        }
      ],
      "name": "assetID",
      "outputs": [
        {
          "internalType": "uint256",
          "name": "",
          "type": "uint256"
        }
      ],
      "stateMutability": "view",
      "type": "function"
    },
    {
      "inputs": [
        {
          "internalType": "uint256",
          "name": "",
          "type": "uint256"
        }
      ],
      "name": "assetList",
      "outputs": [
        {
          "internalType": "uint256",
          "name": "",
          "type": "uint256"
        }
      ],
      "stateMutability": "view",
      "type": "function"
    },
    {
      "inputs": [
        {
          "internalType": "uint256",
          "name": "userL2Address_",
          "type": "uint256"
        },
        {
          "internalType": "uint256",
          "name": "ticker_",
          "type": "uint256"
        },
        {
          "internalType": "uint256",
          "name": "amount_",
          "type": "uint256"
        },
        {
          "internalType": "uint256",
          "name": "nonce_",
          "type": "uint256"
        }
      ],
      "name": "depositCancelRequest",
      "outputs": [],
      "stateMutability": "nonpayable",
      "type": "function"
    },
    {
      "inputs": [
        {
          "internalType": "uint256",
          "name": "userL2Address_",
          "type": "uint256"
        }
      ],
      "name": "depositEthToL1",
      "outputs": [],
      "stateMutability": "payable",
      "type": "function"
    },
    {
      "inputs": [
        {
          "internalType": "uint256",
          "name": "userL2Address_",
          "type": "uint256"
        },
        {
          "internalType": "uint256",
          "name": "ticker_",
          "type": "uint256"
        },
        {
          "internalType": "uint256",
          "name": "amount_",
          "type": "uint256"
        },
        {
          "internalType": "uint256",
          "name": "nonce_",
          "type": "uint256"
        }
      ],
      "name": "depositReclaim",
      "outputs": [],
      "stateMutability": "nonpayable",
      "type": "function"
    },
    {
      "inputs": [
        {
          "internalType": "uint256",
          "name": "userL2Address_",
          "type": "uint256"
        },
        {
          "internalType": "uint256",
          "name": "ticker_",
          "type": "uint256"
        },
        {
          "internalType": "uint256",
          "name": "amount_",
          "type": "uint256"
        }
      ],
      "name": "depositToL1",
      "outputs": [],
      "stateMutability": "nonpayable",
      "type": "function"
    },
    {
      "inputs": [],
      "name": "getAssetList",
      "outputs": [
        {
          "internalType": "uint256[]",
          "name": "",
          "type": "uint256[]"
        }
      ],
      "stateMutability": "view",
      "type": "function"
    },
    {
      "inputs": [],
      "name": "owner",
      "outputs": [
        {
          "internalType": "address",
          "name": "",
          "type": "address"
        }
      ],
      "stateMutability": "view",
      "type": "function"
    },
    {
      "inputs": [
        {
          "internalType": "uint256",
          "name": "ticker_",
          "type": "uint256"
        },
        {
          "internalType": "uint256",
          "name": "assetId_",
          "type": "uint256"
        }
      ],
      "name": "removeAssetFromList",
      "outputs": [],
      "stateMutability": "nonpayable",
      "type": "function"
    },
    {
      "inputs": [],
      "name": "renounceOwnership",
      "outputs": [],
      "stateMutability": "nonpayable",
      "type": "function"
    },
    {
      "inputs": [
        {
          "internalType": "uint256",
          "name": "assetContractAddress_",
          "type": "uint256"
        }
      ],
      "name": "setAssetContractAddress",
      "outputs": [],
      "stateMutability": "nonpayable",
      "type": "function"
    },
    {
      "inputs": [
        {
          "internalType": "uint256",
          "name": "ticker_",
          "type": "uint256"
        },
        {
          "internalType": "address",
          "name": "tokenContractAddress_",
          "type": "address"
        }
      ],
      "name": "setTokenContractAddress",
      "outputs": [],
      "stateMutability": "nonpayable",
      "type": "function"
    },
    {
      "inputs": [
        {
          "internalType": "uint256",
          "name": "withdrawalRequestAddress_",
          "type": "uint256"
        }
      ],
      "name": "setWithdrawalRequestAddress",
      "outputs": [],
      "stateMutability": "nonpayable",
      "type": "function"
    },
    {
      "inputs": [],
      "name": "starknetCore",
      "outputs": [
        {
          "internalType": "contract IStarknetCore",
          "name": "",
          "type": "address"
        }
      ],
      "stateMutability": "view",
      "type": "function"
    },
    {
      "inputs": [
        {
          "internalType": "uint256",
          "name": "ticker_",
          "type": "uint256"
        }
      ],
      "name": "tokenContractAddress",
      "outputs": [
        {
          "internalType": "address",
          "name": "",
          "type": "address"
        }
      ],
      "stateMutability": "view",
      "type": "function"
    },
    {
      "inputs": [
        {
          "internalType": "address payable",
          "name": "recipient_",
          "type": "address"
        },
        {
          "internalType": "uint256",
          "name": "amount_",
          "type": "uint256"
        }
      ],
      "name": "transferEth",
      "outputs": [],
      "stateMutability": "nonpayable",
      "type": "function"
    },
    {
      "inputs": [
        {
          "internalType": "address",
          "name": "recipient_",
          "type": "address"
        },
        {
          "internalType": "uint256",
          "name": "amount_",
          "type": "uint256"
        },
        {
          "internalType": "address",
          "name": "tokenAddress_",
          "type": "address"
        }
      ],
      "name": "transferFunds",
      "outputs": [],
      "stateMutability": "nonpayable",
      "type": "function"
    },
    {
      "inputs": [
        {
          "internalType": "address",
          "name": "newOwner",
          "type": "address"
        }
      ],
      "name": "transferOwnership",
      "outputs": [],
      "stateMutability": "nonpayable",
      "type": "function"
    },
    {
      "inputs": [
        {
          "internalType": "uint256",
          "name": "ticker_",
          "type": "uint256"
        },
        {
          "internalType": "uint256",
          "name": "assetId_",
          "type": "uint256"
        }
      ],
      "name": "updateAssetListInL1",
      "outputs": [],
      "stateMutability": "nonpayable",
      "type": "function"
    },
    {
      "inputs": [
        {
          "internalType": "address",
          "name": "userL1Address_",
          "type": "address"
        },
        {
          "internalType": "uint256",
          "name": "userL2Address_",
          "type": "uint256"
        },
        {
          "internalType": "uint256",
          "name": "ticker_",
          "type": "uint256"
        },
        {
          "internalType": "uint256",
          "name": "amount_",
          "type": "uint256"
        },
        {
          "internalType": "uint256",
          "name": "requestId_",
          "type": "uint256"
        }
      ],
      "name": "withdraw",
      "outputs": [],
      "stateMutability": "nonpayable",
      "type": "function"
    },
    {
      "inputs": [
        {
          "internalType": "address",
          "name": "userL1Address_",
          "type": "address"
        },
        {
          "internalType": "uint256",
          "name": "userL2Address_",
          "type": "uint256"
        },
        {
          "internalType": "uint256",
          "name": "amount_",
          "type": "uint256"
        },
        {
          "internalType": "uint256",
          "name": "requestId_",
          "type": "uint256"
        }
      ],
      "name": "withdrawEth",
      "outputs": [],
      "stateMutability": "nonpayable",
      "type": "function"
    },
    {
      "inputs": [],
      "name": "withdrawalRequestContractAddress",
      "outputs": [
        {
          "internalType": "uint256",
          "name": "",
          "type": "uint256"
        }
      ],
      "stateMutability": "view",
      "type": "function"
    }
  ],
  "bytecode": "0x60a06040523480156200001157600080fd5b50604051620037993803806200379983398101604081905262000034916200016a565b6200003f33620000e3565b600180556001600160a01b0383166200005757600080fd5b620000628262000133565b6200006c57600080fd5b620000778162000133565b6200008157600080fd5b6001600160a01b038316608081905260038390556004829055604080519182526020820184905281018290527fc0744ae70a18c6b0b8273fc690a2933baf5f35e80164891726283a5361cf6f2f9060600160405180910390a1505050620001af565b600080546001600160a01b038381166001600160a01b0319831681178455604051919092169283917f8be0079c531659141344cd1fd0a4f28419497f9722a3daafe3b4186f6b6457e09190a35050565b600081158015906200016457507f080000000000001100000000000000000000000000000000000000000000000182105b92915050565b6000806000606084860312156200018057600080fd5b83516001600160a01b03811681146200019857600080fd5b602085015160409095015190969495509392505050565b60805161358f6200020a600039600081816102240152818161081b0152818161098001528181610de1015281816112ed0152818161144f015281816118cf01528181611aed015281816125440152612b91015261358f6000f3fe6080604052600436106101805760003560e01c80637361e28e116100d6578063ab76fac61161007f578063c5b6e95c11610059578063c5b6e95c1461047a578063e9bb84c214610490578063f2fde38b146104b057600080fd5b8063ab76fac6146103f2578063b9b9836a1461043a578063be6fa2021461045a57600080fd5b80638e96059f116100b05780638e96059f146103925780639d96323a146103b2578063a0b4b301146103d257600080fd5b80637361e28e146103275780638ba9ab42146103475780638da5cb5b1461036757600080fd5b80633fcee0a5116101385780634f8f1453116101125780634f8f1453146102dc57806364095b4f146102f2578063715018a61461031257600080fd5b80633fcee0a51461026b578063472857c41461028b5780634ca851d6146102c957600080fd5b806324da7b7f1161016957806324da7b7f146101c75780633765c0b8146101e757806339e730ab1461021257600080fd5b806312661c571461018557806319e64f58146101a7575b600080fd5b34801561019157600080fd5b506101a56101a0366004613115565b6104d0565b005b3480156101b357600080fd5b506101a56101c2366004613150565b6105b3565b3480156101d357600080fd5b506101a56101e2366004613192565b6106eb565b3480156101f357600080fd5b506101fc610ac9565b6040516102099190613208565b60405180910390f35b34801561021e57600080fd5b506102467f000000000000000000000000000000000000000000000000000000000000000081565b60405173ffffffffffffffffffffffffffffffffffffffff9091168152602001610209565b34801561027757600080fd5b506101a561028636600461321b565b610b21565b34801561029757600080fd5b506102bb6102a6366004613115565b60009081526005602052604090206002015490565b604051908152602001610209565b6101a56102d7366004613115565b610e9d565b3480156102e857600080fd5b506102bb60035481565b3480156102fe57600080fd5b506101a561030d36600461323d565b6110e9565b34801561031e57600080fd5b506101a5611579565b34801561033357600080fd5b506101a561034236600461321b565b61158d565b34801561035357600080fd5b506101a5610362366004613281565b611990565b34801561037357600080fd5b5060005473ffffffffffffffffffffffffffffffffffffffff16610246565b34801561039e57600080fd5b506101a56103ad3660046132b3565b611c70565b3480156103be57600080fd5b506101a56103cd3660046132e3565b611edb565b3480156103de57600080fd5b506102bb6103ed366004613115565b6123c6565b3480156103fe57600080fd5b5061024661040d366004613115565b600090815260056020526040902054610100900473ffffffffffffffffffffffffffffffffffffffff1690565b34801561044657600080fd5b506101a5610455366004613281565b6123e7565b34801561046657600080fd5b506101a5610475366004613115565b612655565b34801561048657600080fd5b506102bb60045481565b34801561049c57600080fd5b506101a56104ab36600461330f565b612733565b3480156104bc57600080fd5b506101a56104cb36600461333b565b612876565b6104d861292d565b6104e1816129ae565b610572576040517f08c379a000000000000000000000000000000000000000000000000000000000815260206004820152602760248201527f494e56414c49445f46454c543a207769746864726177616c526571756573744160448201527f6464726573735f0000000000000000000000000000000000000000000000000060648201526084015b60405180910390fd5b60045460408051918252602082018390527f764e1d3af84341166dc299834bbec1c645e27997c78d8bc8aa574b59be67f4a4910160405180910390a1600455565b6105bb61292d565b73ffffffffffffffffffffffffffffffffffffffff831661065e576040517f08c379a000000000000000000000000000000000000000000000000000000000815260206004820152603060248201527f546f6b656e205472616e73666572206661696c65643a20726563697069656e7460448201527f2061646472657373206973207a65726f000000000000000000000000000000006064820152608401610569565b61067f73ffffffffffffffffffffffffffffffffffffffff821684846129e4565b8073ffffffffffffffffffffffffffffffffffffffff168373ffffffffffffffffffffffffffffffffffffffff167f53dbb277b0320ca10e63b8c970af9dd327bb112ef350181c6e2cc4e5cbc390f6846040516106de91815260200190565b60405180910390a3505050565b600260015403610757576040517f08c379a000000000000000000000000000000000000000000000000000000000815260206004820152601f60248201527f5265656e7472616e637947756172643a207265656e7472616e742063616c6c006044820152606401610569565b60026001556245544860005260056020527f8118c6a7b11d5060da52316a1b47b882907ca8ece09e1f2d24abbec4820373b15460ff16610819576040517f08c379a000000000000000000000000000000000000000000000000000000000815260206004820152602b60248201527f4465706f736974206661696c65643a20455448206e6f7420726567697374657260448201527f65642061732061737365740000000000000000000000000000000000000000006064820152608401610569565b7f000000000000000000000000000000000000000000000000000000000000000073ffffffffffffffffffffffffffffffffffffffff16632c9dd5c08461087b8773ffffffffffffffffffffffffffffffffffffffff16624554488787612abd565b6040518363ffffffff1660e01b8152600401610898929190613358565b6020604051808303816000875af11580156108b7573d6000803e3d6000fd5b505050506040513d601f19601f820116820180604052508101906108db9190613371565b5060408051600280825260608201835260009260208301908036833701905050905083816000815181106109115761091161338a565b60200260200101818152505081816001815181106109315761093161338a565b6020908102919091010152600480546040517f3e3aa6c500000000000000000000000000000000000000000000000000000000815260009273ffffffffffffffffffffffffffffffffffffffff7f00000000000000000000000000000000000000000000000000000000000000001692633e3aa6c5926109d5927f03b116e4e445ac98fc6252fd48e989f8a022057b94c0a80e24511414cce68be3918891016133b9565b6020604051808303816000875af11580156109f4573d6000803e3d6000fd5b505050506040513d601f19601f82011682018060405250810190610a189190613371565b60405190915073ffffffffffffffffffffffffffffffffffffffff87169085156108fc029086906000818181858888f19350505050158015610a5e573d6000803e3d6000fd5b506040805185815260208101859052908101829052624554489073ffffffffffffffffffffffffffffffffffffffff8816907fa1b13611139003d418e6274627f4fb385f1e8591b09643b4431e153180127a439060600160405180910390a350506001805550505050565b60606002805480602002602001604051908101604052809291908181526020018280548015610b1757602002820191906000526020600020905b815481526020019060010190808311610b03575b5050505050905090565b610b2961292d565b600260015403610b95576040517f08c379a000000000000000000000000000000000000000000000000000000000815260206004820152601f60248201527f5265656e7472616e637947756172643a207265656e7472616e742063616c6c006044820152606401610569565b600260015560008281526005602052604090205460ff1615610c39576040517f08c379a000000000000000000000000000000000000000000000000000000000815260206004820152602a60248201527f4661696c656420746f206164642061737365743a205469636b657220616c726560448201527f61647920657869737473000000000000000000000000000000000000000000006064820152608401610569565b60408051608080820183526001808352600060208085018281526002805487890190815260608089018b81528c8752600586528a872099518a5495517fffffffffffffffffffffff0000000000000000000000000000000000000000009096169015157fffffffffffffffffffffff0000000000000000000000000000000000000000ff161761010073ffffffffffffffffffffffffffffffffffffffff90961695909502949094178955905188870155915196810196909655855493840186559482527f405787fa12a823e0f2b7631cc41b3ba8828b3321ca811111fa75cd3aa3bb5ace9092018790558451600380825293810190955293929083019080368337019050509050600181600081518110610d5657610d5661338a565b6020026020010181815250508281600181518110610d7657610d7661338a565b6020026020010181815250508181600281518110610d9657610d9661338a565b60209081029190910101526003546040517f2c9dd5c000000000000000000000000000000000000000000000000000000000815273ffffffffffffffffffffffffffffffffffffffff7f00000000000000000000000000000000000000000000000000000000000000001691632c9dd5c091610e1791908590600401613358565b6020604051808303816000875af1158015610e36573d6000803e3d6000fd5b505050506040513d601f19601f82011682018060405250810190610e5a9190613371565b5060408051848152602081018490527f06da16133d6c5df5d94a92ab55c0cbc73a196787eefc1314e37617dc915a14ae910160405180910390a150506001805550565b600260015403610f09576040517f08c379a000000000000000000000000000000000000000000000000000000000815260206004820152601f60248201527f5265656e7472616e637947756172643a207265656e7472616e742063616c6c006044820152606401610569565b6002600155610f17816129ae565b610f7d576040517f08c379a000000000000000000000000000000000000000000000000000000000815260206004820152601c60248201527f494e56414c49445f46454c543a20757365724c32416464726573735f000000006044820152606401610569565b6000341161100d576040517f08c379a000000000000000000000000000000000000000000000000000000000815260206004820152602160248201527f4465706f736974206661696c65643a206e6f2076616c75652070726f7669646560448201527f64000000000000000000000000000000000000000000000000000000000000006064820152608401610569565b6245544860005260056020527f8118c6a7b11d5060da52316a1b47b882907ca8ece09e1f2d24abbec4820373b1805460ff166110cb576040517f08c379a000000000000000000000000000000000000000000000000000000000815260206004820152602b60248201527f4465706f736974206661696c65643a20455448206e6f7420726567697374657260448201527f65642061732061737365740000000000000000000000000000000000000000006064820152608401610569565b600281015433906110e0908290859034612b8d565b50506001805550565b600260015403611155576040517f08c379a000000000000000000000000000000000000000000000000000000000815260206004820152601f60248201527f5265656e7472616e637947756172643a207265656e7472616e742063616c6c006044820152606401610569565b600260018181556000858152600560209081526040918290208251608081018452815460ff8116151580835261010090910473ffffffffffffffffffffffffffffffffffffffff16938201939093529381015492840192909252920154606082015290611244576040517f08c379a000000000000000000000000000000000000000000000000000000000815260206004820152602760248201527f5769746864726177616c206661696c65643a206e6f6e2d72656769737465726560448201527f64206173736574000000000000000000000000000000000000000000000000006064820152608401610569565b602081015173ffffffffffffffffffffffffffffffffffffffff166112eb576040517f08c379a000000000000000000000000000000000000000000000000000000000815260206004820152602860248201527f5769746864726177616c206661696c65643a20746f6b656e206164647265737360448201527f206e6f74207365740000000000000000000000000000000000000000000000006064820152608401610569565b7f000000000000000000000000000000000000000000000000000000000000000073ffffffffffffffffffffffffffffffffffffffff16632c9dd5c08661134a8973ffffffffffffffffffffffffffffffffffffffff16888888612abd565b6040518363ffffffff1660e01b8152600401611367929190613358565b6020604051808303816000875af1158015611386573d6000803e3d6000fd5b505050506040513d601f19601f820116820180604052508101906113aa9190613371565b5060408051600280825260608201835260009260208301908036833701905050905085816000815181106113e0576113e061338a565b60200260200101818152505082816001815181106114005761140061338a565b6020908102919091010152600480546040517f3e3aa6c500000000000000000000000000000000000000000000000000000000815260009273ffffffffffffffffffffffffffffffffffffffff7f00000000000000000000000000000000000000000000000000000000000000001692633e3aa6c5926114a4927f03b116e4e445ac98fc6252fd48e989f8a022057b94c0a80e24511414cce68be3918891016133b9565b6020604051808303816000875af11580156114c3573d6000803e3d6000fd5b505050506040513d601f19601f820116820180604052508101906114e79190613371565b60208401519091506115109073ffffffffffffffffffffffffffffffffffffffff1689876129e4565b6040805186815260208101869052908101829052869073ffffffffffffffffffffffffffffffffffffffff8a16907fa1b13611139003d418e6274627f4fb385f1e8591b09643b4431e153180127a439060600160405180910390a3505060018055505050505050565b61158161292d565b61158b6000612ca1565b565b61159561292d565b600260015403611601576040517f08c379a000000000000000000000000000000000000000000000000000000000815260206004820152601f60248201527f5265656e7472616e637947756172643a207265656e7472616e742063616c6c006044820152606401610569565b600260018190555461166f576040517f08c379a000000000000000000000000000000000000000000000000000000000815260206004820152601160248201527f4e6f7468696e6720746f2072656d6f76650000000000000000000000000000006044820152606401610569565b60008281526005602052604090206001810154815460ff16611713576040517f08c379a000000000000000000000000000000000000000000000000000000000815260206004820152602360248201527f4661696c656420746f2072656d6f7665206e6f6e2d6578697374696e6720617360448201527f73657400000000000000000000000000000000000000000000000000000000006064820152608401610569565b60025460009061172590600190613410565b905060006002828154811061173c5761173c61338a565b906000526020600020015490506000600560008381526020019081526020016000209050838160010181905550816002858154811061177d5761177d61338a565b600091825260209091200155600280548061179a5761179a613427565b600082815260208082207fffffffffffffffffffffffffffffffffffffffffffffffffffffffffffffffff908401810183905590920190925588825260058152604080832080547fffffffffffffffffffffff0000000000000000000000000000000000000000001681556001810184905560020183905580516003808252608082019092529182016060803683370190505090506002816000815181106118445761184461338a565b60200260200101818152505087816001815181106118645761186461338a565b60200260200101818152505086816002815181106118845761188461338a565b60209081029190910101526003546040517f2c9dd5c000000000000000000000000000000000000000000000000000000000815273ffffffffffffffffffffffffffffffffffffffff7f00000000000000000000000000000000000000000000000000000000000000001691632c9dd5c09161190591908590600401613358565b6020604051808303816000875af1158015611924573d6000803e3d6000fd5b505050506040513d601f19601f820116820180604052508101906119489190613371565b5060408051898152602081018990527f2af2b674e940dc9a5ac8152e53b7b1dab5ac73e557e9d5e0c6f1160cdf32ed96910160405180910390a1505060018055505050505050565b6002600154036119fc576040517f08c379a000000000000000000000000000000000000000000000000000000000815260206004820152601f60248201527f5265656e7472616e637947756172643a207265656e7472616e742063616c6c006044820152606401610569565b600260018181556000858152600560209081526040918290208251608081018452815460ff8116151580835261010090910473ffffffffffffffffffffffffffffffffffffffff16938201939093529381015492840192909252920154606082015290611aeb576040517f08c379a000000000000000000000000000000000000000000000000000000000815260206004820152603260248201527f4661696c656420746f2063616c6c206465706f736974207265636c61696d3a2060448201527f6e6f6e2d6578697374696e6720617373657400000000000000000000000000006064820152608401610569565b7f000000000000000000000000000000000000000000000000000000000000000073ffffffffffffffffffffffffffffffffffffffff16636170ff1b867ec73f681176fc7b3f9693986fd7b14581e8d540519e27400e88b8713932be01611b6d3373ffffffffffffffffffffffffffffffffffffffff16888760600151612d16565b866040518563ffffffff1660e01b8152600401611b8d9493929190613456565b600060405180830381600087803b158015611ba757600080fd5b505af1158015611bbb573d6000803e3d6000fd5b50505050624554488403611bfc57604051339084156108fc029085906000818181858888f19350505050158015611bf6573d6000803e3d6000fd5b50611c22565b6020810151611c229073ffffffffffffffffffffffffffffffffffffffff1633856129e4565b60608101516040805185815260208101859052879133917f958f7925da904441a0678a5be692cad155e2fefaca4819453abb826f795eb99991015b60405180910390a4505060018055505050565b611c7861292d565b73ffffffffffffffffffffffffffffffffffffffff8116611d1b576040517f08c379a000000000000000000000000000000000000000000000000000000000815260206004820152603260248201527f4661696c656420746f2073657420746f6b656e20616464726573733a207a657260448201527f6f20616464726573732070726f766964656400000000000000000000000000006064820152608401610569565b6000828152600560205260409020805460ff16611dba576040517f08c379a000000000000000000000000000000000000000000000000000000000815260206004820152603160248201527f4661696c656420746f2073657420746f6b656e20616464726573733a206e6f6e60448201527f2d726567697374657265642061737365740000000000000000000000000000006064820152608401610569565b8054610100900473ffffffffffffffffffffffffffffffffffffffff1615611e64576040517f08c379a000000000000000000000000000000000000000000000000000000000815260206004820152602860248201527f4661696c656420746f2073657420746f6b656e20616464726573733a20416c7260448201527f65616479207365740000000000000000000000000000000000000000000000006064820152608401610569565b80547fffffffffffffffffffffff0000000000000000000000000000000000000000ff1661010073ffffffffffffffffffffffffffffffffffffffff841690810291909117825560405184907fda00af47c555ffbf1066050dc756812f86a5fd98a060206c6c1e2acff785048d90600090a3505050565b600260015403611f47576040517f08c379a000000000000000000000000000000000000000000000000000000000815260206004820152601f60248201527f5265656e7472616e637947756172643a207265656e7472616e742063616c6c006044820152606401610569565b6002600155611f55836129ae565b611fbb576040517f08c379a000000000000000000000000000000000000000000000000000000000815260206004820152601c60248201527f494e56414c49445f46454c543a20757365724c32416464726573735f000000006044820152606401610569565b611fc4816129ae565b61202a576040517f08c379a000000000000000000000000000000000000000000000000000000000815260206004820152601560248201527f494e56414c49445f46454c543a20616d6f756e745f00000000000000000000006044820152606401610569565b6000828152600560209081526040918290208251608081018452815460ff8116151580835261010090910473ffffffffffffffffffffffffffffffffffffffff1693820193909352600182015493810193909352600201546060830152612112576040517f08c379a0000000000000000000000000000000000000000000000000000000008152602060048201526024808201527f4465706f736974206661696c65643a206e6f6e2d72656769737465726564206160448201527f73736574000000000000000000000000000000000000000000000000000000006064820152608401610569565b602081015173ffffffffffffffffffffffffffffffffffffffff166121b9576040517f08c379a000000000000000000000000000000000000000000000000000000000815260206004820152602560248201527f4465706f736974206661696c65643a20746f6b656e2061646472657373206e6f60448201527f74207365740000000000000000000000000000000000000000000000000000006064820152608401610569565b60208101516040517f70a08231000000000000000000000000000000000000000000000000000000008152306004820181905233929160009073ffffffffffffffffffffffffffffffffffffffff8416906370a0823190602401602060405180830381865afa158015612230573d6000803e3d6000fd5b505050506040513d601f19601f820116820180604052508101906122549190613371565b905061227873ffffffffffffffffffffffffffffffffffffffff8416338489612da5565b6040517f70a0823100000000000000000000000000000000000000000000000000000000815273ffffffffffffffffffffffffffffffffffffffff8381166004830152600091908516906370a0823190602401602060405180830381865afa1580156122e8573d6000803e3d6000fd5b505050506040513d601f19601f8201168201806040525081019061230c9190613371565b90506123188783613486565b8110156123a7576040517f08c379a000000000000000000000000000000000000000000000000000000000815260206004820152602760248201527f4465706f736974206661696c65643a20496e76616c6964207472616e7366657260448201527f20616d6f756e74000000000000000000000000000000000000000000000000006064820152608401610569565b6123b7858a88606001518a612b8d565b50506001805550505050505050565b600281815481106123d657600080fd5b600091825260209091200154905081565b600260015403612453576040517f08c379a000000000000000000000000000000000000000000000000000000000815260206004820152601f60248201527f5265656e7472616e637947756172643a207265656e7472616e742063616c6c006044820152606401610569565b600260018181556000858152600560209081526040918290208251608081018452815460ff8116151580835261010090910473ffffffffffffffffffffffffffffffffffffffff16938201939093529381015492840192909252920154606082015290612542576040517f08c379a000000000000000000000000000000000000000000000000000000000815260206004820152603d60248201527f4661696c656420746f20696e697469617465206465706f7369742063616e636560448201527f6c20726571756573743a206e6f6e2d6578697374696e672061737365740000006064820152608401610569565b7f000000000000000000000000000000000000000000000000000000000000000073ffffffffffffffffffffffffffffffffffffffff16637a98660b867ec73f681176fc7b3f9693986fd7b14581e8d540519e27400e88b8713932be016125c43373ffffffffffffffffffffffffffffffffffffffff16888760600151612d16565b866040518563ffffffff1660e01b81526004016125e49493929190613456565b600060405180830381600087803b1580156125fe57600080fd5b505af1158015612612573d6000803e3d6000fd5b5050505060608101516040805185815260208101859052879133917f6eac264bf6eef2951f9ed2c3fe2f3054af1522ff93b63d22b525d860d1cfb50b9101611c5d565b61265d61292d565b612666816129ae565b6126f2576040517f08c379a000000000000000000000000000000000000000000000000000000000815260206004820152602360248201527f494e56414c49445f46454c543a206173736574436f6e7472616374416464726560448201527f73735f00000000000000000000000000000000000000000000000000000000006064820152608401610569565b60035460408051918252602082018390527ff7195d3f8e010be77a76bd5215ad73d7de902ca66175718c01eae8f19ae26628910160405180910390a1600355565b61273b61292d565b73ffffffffffffffffffffffffffffffffffffffff82166127de576040517f08c379a000000000000000000000000000000000000000000000000000000000815260206004820152602e60248201527f455448205472616e73666572206661696c65643a20726563697069656e74206160448201527f646472657373206973207a65726f0000000000000000000000000000000000006064820152608401610569565b60405173ffffffffffffffffffffffffffffffffffffffff83169082156108fc029083906000818181858888f19350505050158015612821573d6000803e3d6000fd5b508173ffffffffffffffffffffffffffffffffffffffff167f0b3acf92f1f5629ffbf3357bece56f61d2715cabe6552915c0cf496943b208ff8260405161286a91815260200190565b60405180910390a25050565b61287e61292d565b73ffffffffffffffffffffffffffffffffffffffff8116612921576040517f08c379a000000000000000000000000000000000000000000000000000000000815260206004820152602660248201527f4f776e61626c653a206e6577206f776e657220697320746865207a65726f206160448201527f64647265737300000000000000000000000000000000000000000000000000006064820152608401610569565b61292a81612ca1565b50565b60005473ffffffffffffffffffffffffffffffffffffffff16331461158b576040517f08c379a000000000000000000000000000000000000000000000000000000000815260206004820181905260248201527f4f776e61626c653a2063616c6c6572206973206e6f7420746865206f776e65726044820152606401610569565b600081158015906129de57507f080000000000001100000000000000000000000000000000000000000000000182105b92915050565b60405173ffffffffffffffffffffffffffffffffffffffff8316602482015260448101829052612ab89084907fa9059cbb00000000000000000000000000000000000000000000000000000000906064015b604080517fffffffffffffffffffffffffffffffffffffffffffffffffffffffffffffffe08184030181529190526020810180517bffffffffffffffffffffffffffffffffffffffffffffffffffffffff167fffffffff0000000000000000000000000000000000000000000000000000000090931692909217909152612e09565b505050565b60408051600580825260c08201909252606091600091906020820160a080368337019050509050600381600081518110612af957612af961338a565b6020026020010181815250508581600181518110612b1957612b1961338a565b6020026020010181815250508481600281518110612b3957612b3961338a565b6020026020010181815250508381600381518110612b5957612b5961338a565b6020026020010181815250508281600481518110612b7957612b7961338a565b602090810291909101015295945050505050565b60007f000000000000000000000000000000000000000000000000000000000000000073ffffffffffffffffffffffffffffffffffffffff16633e3aa6c5857ec73f681176fc7b3f9693986fd7b14581e8d540519e27400e88b8713932be01612bf7898789612d16565b6040518463ffffffff1660e01b8152600401612c15939291906133b9565b6020604051808303816000875af1158015612c34573d6000803e3d6000fd5b505050506040513d601f19601f82011682018060405250810190612c589190613371565b60408051848152602081018390529192508591859133917ffe87aeff807798d94d4b6c7f0b290f0a4d4994a3cb46faef49ab8a14495328b3910160405180910390a45050505050565b6000805473ffffffffffffffffffffffffffffffffffffffff8381167fffffffffffffffffffffffff0000000000000000000000000000000000000000831681178455604051919092169283917f8be0079c531659141344cd1fd0a4f28419497f9722a3daafe3b4186f6b6457e09190a35050565b60408051600380825260808201909252606091600091906020820184803683370190505090508481600081518110612d5057612d5061338a565b6020026020010181815250508381600181518110612d7057612d7061338a565b6020026020010181815250508281600281518110612d9057612d9061338a565b602090810291909101015290505b9392505050565b60405173ffffffffffffffffffffffffffffffffffffffff80851660248301528316604482015260648101829052612e039085907f23b872dd0000000000000000000000000000000000000000000000000000000090608401612a36565b50505050565b6000612e6b826040518060400160405280602081526020017f5361666545524332303a206c6f772d6c6576656c2063616c6c206661696c65648152508573ffffffffffffffffffffffffffffffffffffffff16612f159092919063ffffffff16565b805190915015612ab85780806020019051810190612e89919061349e565b612ab8576040517f08c379a000000000000000000000000000000000000000000000000000000000815260206004820152602a60248201527f5361666545524332303a204552433230206f7065726174696f6e20646964206e60448201527f6f742073756363656564000000000000000000000000000000000000000000006064820152608401610569565b6060612f248484600085612f2c565b949350505050565b606082471015612fbe576040517f08c379a000000000000000000000000000000000000000000000000000000000815260206004820152602660248201527f416464726573733a20696e73756666696369656e742062616c616e636520666f60448201527f722063616c6c00000000000000000000000000000000000000000000000000006064820152608401610569565b73ffffffffffffffffffffffffffffffffffffffff85163b61303c576040517f08c379a000000000000000000000000000000000000000000000000000000000815260206004820152601d60248201527f416464726573733a2063616c6c20746f206e6f6e2d636f6e74726163740000006044820152606401610569565b6000808673ffffffffffffffffffffffffffffffffffffffff16858760405161306591906134ec565b60006040518083038185875af1925050503d80600081146130a2576040519150601f19603f3d011682016040523d82523d6000602084013e6130a7565b606091505b50915091506130b78282866130c2565b979650505050505050565b606083156130d1575081612d9e565b8251156130e15782518084602001fd5b816040517f08c379a00000000000000000000000000000000000000000000000000000000081526004016105699190613508565b60006020828403121561312757600080fd5b5035919050565b73ffffffffffffffffffffffffffffffffffffffff8116811461292a57600080fd5b60008060006060848603121561316557600080fd5b83356131708161312e565b92506020840135915060408401356131878161312e565b809150509250925092565b600080600080608085870312156131a857600080fd5b84356131b38161312e565b966020860135965060408601359560600135945092505050565b600081518084526020808501945080840160005b838110156131fd578151875295820195908201906001016131e1565b509495945050505050565b602081526000612d9e60208301846131cd565b6000806040838503121561322e57600080fd5b50508035926020909101359150565b600080600080600060a0868803121561325557600080fd5b85356132608161312e565b97602087013597506040870135966060810135965060800135945092505050565b6000806000806080858703121561329757600080fd5b5050823594602084013594506040840135936060013592509050565b600080604083850312156132c657600080fd5b8235915060208301356132d88161312e565b809150509250929050565b6000806000606084860312156132f857600080fd5b505081359360208301359350604090920135919050565b6000806040838503121561332257600080fd5b823561332d8161312e565b946020939093013593505050565b60006020828403121561334d57600080fd5b8135612d9e8161312e565b828152604060208201526000612f2460408301846131cd565b60006020828403121561338357600080fd5b5051919050565b7f4e487b7100000000000000000000000000000000000000000000000000000000600052603260045260246000fd5b8381528260208201526060604082015260006133d860608301846131cd565b95945050505050565b7f4e487b7100000000000000000000000000000000000000000000000000000000600052601160045260246000fd5b600082821015613422576134226133e1565b500390565b7f4e487b7100000000000000000000000000000000000000000000000000000000600052603160045260246000fd5b84815283602082015260806040820152600061347560808301856131cd565b905082606083015295945050505050565b60008219821115613499576134996133e1565b500190565b6000602082840312156134b057600080fd5b81518015158114612d9e57600080fd5b60005b838110156134db5781810151838201526020016134c3565b83811115612e035750506000910152565b600082516134fe8184602087016134c0565b9190910192915050565b60208152600082518060208401526135278160408501602087016134c0565b601f017fffffffffffffffffffffffffffffffffffffffffffffffffffffffffffffffe016919091016040019291505056fea2646970667358221220fecb750bf177082cf642d6fac51d1ab7cd1e5db853ce77997013a0c91324b74664736f6c634300080e0033",
  "linkReferences": {},
  "deployedLinkReferences": {}
}