{
  "_format": "hh-sol-artifact-1",
  "contractName": "L1ZKXContract",
  "sourceName": "contracts/L1ZKXContract.sol",
  "abi": [
    {
      "inputs": [
        {
          "internalType": "contract IStarknetCore",
          "name": "starknetCore_",
          "type": "address"
        },
        {
          "internalType": "uint256",
          "name": "assetContractAddress_",
          "type": "uint256"
        },
        {
          "internalType": "uint256",
          "name": "withdrawalRequestContractAddress_",
          "type": "uint256"
        }
      ],
      "stateMutability": "nonpayable",
      "type": "constructor"
    },
    {
      "anonymous": false,
      "inputs": [
        {
          "indexed": true,
          "internalType": "address payable",
          "name": "recipient",
          "type": "address"
        },
        {
          "indexed": false,
          "internalType": "uint256",
          "name": "amount",
          "type": "uint256"
        }
      ],
      "name": "LogAdminTransferEth",
      "type": "event"
    },
    {
      "anonymous": false,
      "inputs": [
        {
          "indexed": true,
          "internalType": "address",
          "name": "recipient",
          "type": "address"
        },
        {
          "indexed": false,
          "internalType": "uint256",
          "name": "amount",
          "type": "uint256"
        },
        {
          "indexed": true,
          "internalType": "address",
          "name": "tokenAddress",
          "type": "address"
        }
      ],
      "name": "LogAdminTransferFunds",
      "type": "event"
    },
    {
      "anonymous": false,
      "inputs": [
        {
          "indexed": false,
          "internalType": "uint256",
          "name": "oldAssetContract",
          "type": "uint256"
        },
        {
          "indexed": false,
          "internalType": "uint256",
          "name": "newAssetContract",
          "type": "uint256"
        }
      ],
      "name": "LogAssetContractAddressChanged",
      "type": "event"
    },
    {
      "anonymous": false,
      "inputs": [
        {
          "indexed": false,
          "internalType": "uint256",
          "name": "ticker",
          "type": "uint256"
        },
        {
          "indexed": false,
          "internalType": "uint256",
          "name": "collateralId",
          "type": "uint256"
        }
      ],
      "name": "LogAssetListUpdated",
      "type": "event"
    },
    {
      "anonymous": false,
      "inputs": [
        {
          "indexed": false,
          "internalType": "uint256",
          "name": "ticker",
          "type": "uint256"
        },
        {
          "indexed": false,
          "internalType": "uint256",
          "name": "collateralId",
          "type": "uint256"
        }
      ],
      "name": "LogAssetRemovedFromList",
      "type": "event"
    },
    {
      "anonymous": false,
      "inputs": [
        {
          "indexed": false,
          "internalType": "contract IStarknetCore",
          "name": "starknetCore",
          "type": "address"
        },
        {
          "indexed": false,
          "internalType": "uint256",
          "name": "assetContractAddress",
          "type": "uint256"
        },
        {
          "indexed": false,
          "internalType": "uint256",
          "name": "withdrawalRequestContractAddress",
          "type": "uint256"
        }
      ],
      "name": "LogContractInitialized",
      "type": "event"
    },
    {
      "anonymous": false,
      "inputs": [
        {
          "indexed": true,
          "internalType": "address",
          "name": "sender",
          "type": "address"
        },
        {
          "indexed": false,
          "internalType": "uint256",
          "name": "amount",
          "type": "uint256"
        },
        {
          "indexed": true,
          "internalType": "uint256",
          "name": "collateralId",
          "type": "uint256"
        },
        {
          "indexed": true,
          "internalType": "uint256",
          "name": "l2Recipient",
          "type": "uint256"
        },
        {
          "indexed": false,
          "internalType": "bytes32",
          "name": "msgHash",
          "type": "bytes32"
        }
      ],
      "name": "LogDeposit",
      "type": "event"
    },
    {
      "anonymous": false,
      "inputs": [
        {
          "indexed": true,
          "internalType": "address",
          "name": "sender",
          "type": "address"
        },
        {
          "indexed": true,
          "internalType": "uint256",
          "name": "l2Recipient",
          "type": "uint256"
        },
        {
          "indexed": true,
          "internalType": "uint256",
          "name": "collateralId",
          "type": "uint256"
        },
        {
          "indexed": false,
          "internalType": "uint256",
          "name": "amount",
          "type": "uint256"
        },
        {
          "indexed": false,
          "internalType": "uint256",
          "name": "nonce",
          "type": "uint256"
        }
      ],
      "name": "LogDepositCancelRequest",
      "type": "event"
    },
    {
      "anonymous": false,
      "inputs": [
        {
          "indexed": true,
          "internalType": "address",
          "name": "sender",
          "type": "address"
        },
        {
          "indexed": true,
          "internalType": "uint256",
          "name": "l2Recipient",
          "type": "uint256"
        },
        {
          "indexed": true,
          "internalType": "uint256",
          "name": "collateralId",
          "type": "uint256"
        },
        {
          "indexed": false,
          "internalType": "uint256",
          "name": "amount",
          "type": "uint256"
        },
        {
          "indexed": false,
          "internalType": "uint256",
          "name": "nonce",
          "type": "uint256"
        }
      ],
      "name": "LogDepositReclaimed",
      "type": "event"
    },
    {
      "anonymous": false,
      "inputs": [
        {
          "indexed": true,
          "internalType": "uint256",
          "name": "ticker",
          "type": "uint256"
        },
        {
          "indexed": true,
          "internalType": "address",
          "name": "tokenContractAddress",
          "type": "address"
        }
      ],
      "name": "LogTokenContractAddressUpdated",
      "type": "event"
    },
    {
      "anonymous": false,
      "inputs": [
        {
          "indexed": true,
          "internalType": "address",
          "name": "recipient",
          "type": "address"
        },
        {
          "indexed": true,
          "internalType": "uint256",
          "name": "ticker",
          "type": "uint256"
        },
        {
          "indexed": false,
          "internalType": "uint256",
          "name": "amount",
          "type": "uint256"
        },
        {
          "indexed": false,
          "internalType": "uint256",
          "name": "requestId",
          "type": "uint256"
        },
        {
          "indexed": false,
          "internalType": "bytes32",
          "name": "msgHash",
          "type": "bytes32"
        }
      ],
      "name": "LogWithdrawal",
      "type": "event"
    },
    {
      "anonymous": false,
      "inputs": [
        {
          "indexed": false,
          "internalType": "uint256",
          "name": "oldWithdrawalContract",
          "type": "uint256"
        },
        {
          "indexed": false,
          "internalType": "uint256",
          "name": "newWithdrawalContract",
          "type": "uint256"
        }
      ],
      "name": "LogWithdrawalRequestContractChanged",
      "type": "event"
    },
    {
      "anonymous": false,
      "inputs": [
        {
          "indexed": true,
          "internalType": "address",
          "name": "previousOwner",
          "type": "address"
        },
        {
          "indexed": true,
          "internalType": "address",
          "name": "newOwner",
          "type": "address"
        }
      ],
      "name": "OwnershipTransferred",
      "type": "event"
    },
    {
      "inputs": [],
      "name": "assetContractAddress",
      "outputs": [
        {
          "internalType": "uint256",
          "name": "",
          "type": "uint256"
        }
      ],
      "stateMutability": "view",
      "type": "function"
    },
    {
      "inputs": [
        {
          "internalType": "uint256",
          "name": "ticker_",
          "type": "uint256"
        }
      ],
      "name": "assetID",
      "outputs": [
        {
          "internalType": "uint256",
          "name": "",
          "type": "uint256"
        }
      ],
      "stateMutability": "view",
      "type": "function"
    },
    {
      "inputs": [
        {
          "internalType": "uint256",
          "name": "",
          "type": "uint256"
        }
      ],
      "name": "assetList",
      "outputs": [
        {
          "internalType": "uint256",
          "name": "",
          "type": "uint256"
        }
      ],
      "stateMutability": "view",
      "type": "function"
    },
    {
      "inputs": [
        {
          "internalType": "uint256",
          "name": "userL2Address_",
          "type": "uint256"
        },
        {
          "internalType": "uint256",
          "name": "ticker_",
          "type": "uint256"
        },
        {
          "internalType": "uint256",
          "name": "amount_",
          "type": "uint256"
        },
        {
          "internalType": "uint256",
          "name": "nonce_",
          "type": "uint256"
        }
      ],
      "name": "depositCancelRequest",
      "outputs": [],
      "stateMutability": "nonpayable",
      "type": "function"
    },
    {
      "inputs": [
        {
          "internalType": "uint256",
          "name": "userL2Address_",
          "type": "uint256"
        }
      ],
      "name": "depositEthToL1",
      "outputs": [],
      "stateMutability": "payable",
      "type": "function"
    },
    {
      "inputs": [
        {
          "internalType": "uint256",
          "name": "userL2Address_",
          "type": "uint256"
        },
        {
          "internalType": "uint256",
          "name": "ticker_",
          "type": "uint256"
        },
        {
          "internalType": "uint256",
          "name": "amount_",
          "type": "uint256"
        },
        {
          "internalType": "uint256",
          "name": "nonce_",
          "type": "uint256"
        }
      ],
      "name": "depositReclaim",
      "outputs": [],
      "stateMutability": "nonpayable",
      "type": "function"
    },
    {
      "inputs": [
        {
          "internalType": "uint256",
          "name": "userL2Address_",
          "type": "uint256"
        },
        {
          "internalType": "uint256",
          "name": "ticker_",
          "type": "uint256"
        },
        {
          "internalType": "uint256",
          "name": "amount_",
          "type": "uint256"
        }
      ],
      "name": "depositToL1",
      "outputs": [],
      "stateMutability": "nonpayable",
      "type": "function"
    },
    {
      "inputs": [],
      "name": "getAssetList",
      "outputs": [
        {
          "internalType": "uint256[]",
          "name": "",
          "type": "uint256[]"
        }
      ],
      "stateMutability": "view",
      "type": "function"
    },
    {
      "inputs": [],
      "name": "owner",
      "outputs": [
        {
          "internalType": "address",
          "name": "",
          "type": "address"
        }
      ],
      "stateMutability": "view",
      "type": "function"
    },
    {
      "inputs": [
        {
          "internalType": "uint256",
          "name": "ticker_",
          "type": "uint256"
        },
        {
          "internalType": "uint256",
          "name": "assetId_",
          "type": "uint256"
        }
      ],
      "name": "removeAssetFromList",
      "outputs": [],
      "stateMutability": "nonpayable",
      "type": "function"
    },
    {
      "inputs": [],
      "name": "renounceOwnership",
      "outputs": [],
      "stateMutability": "nonpayable",
      "type": "function"
    },
    {
      "inputs": [
        {
          "internalType": "uint256",
          "name": "assetContractAddress_",
          "type": "uint256"
        }
      ],
      "name": "setAssetContractAddress",
      "outputs": [],
      "stateMutability": "nonpayable",
      "type": "function"
    },
    {
      "inputs": [
        {
          "internalType": "uint256",
          "name": "ticker_",
          "type": "uint256"
        },
        {
          "internalType": "address",
          "name": "tokenContractAddress_",
          "type": "address"
        }
      ],
      "name": "setTokenContractAddress",
      "outputs": [],
      "stateMutability": "nonpayable",
      "type": "function"
    },
    {
      "inputs": [
        {
          "internalType": "uint256",
          "name": "withdrawalRequestAddress_",
          "type": "uint256"
        }
      ],
      "name": "setWithdrawalRequestAddress",
      "outputs": [],
      "stateMutability": "nonpayable",
      "type": "function"
    },
    {
      "inputs": [],
      "name": "starknetCore",
      "outputs": [
        {
          "internalType": "contract IStarknetCore",
          "name": "",
          "type": "address"
        }
      ],
      "stateMutability": "view",
      "type": "function"
    },
    {
      "inputs": [
        {
          "internalType": "uint256",
          "name": "ticker_",
          "type": "uint256"
        }
      ],
      "name": "tokenContractAddress",
      "outputs": [
        {
          "internalType": "address",
          "name": "",
          "type": "address"
        }
      ],
      "stateMutability": "view",
      "type": "function"
    },
    {
      "inputs": [
        {
          "internalType": "address payable",
          "name": "recipient_",
          "type": "address"
        },
        {
          "internalType": "uint256",
          "name": "amount_",
          "type": "uint256"
        }
      ],
      "name": "transferEth",
      "outputs": [],
      "stateMutability": "nonpayable",
      "type": "function"
    },
    {
      "inputs": [
        {
          "internalType": "address",
          "name": "recipient_",
          "type": "address"
        },
        {
          "internalType": "uint256",
          "name": "amount_",
          "type": "uint256"
        },
        {
          "internalType": "address",
          "name": "tokenAddress_",
          "type": "address"
        }
      ],
      "name": "transferFunds",
      "outputs": [],
      "stateMutability": "nonpayable",
      "type": "function"
    },
    {
      "inputs": [
        {
          "internalType": "address",
          "name": "newOwner",
          "type": "address"
        }
      ],
      "name": "transferOwnership",
      "outputs": [],
      "stateMutability": "nonpayable",
      "type": "function"
    },
    {
      "inputs": [
        {
          "internalType": "uint256",
          "name": "ticker_",
          "type": "uint256"
        },
        {
          "internalType": "uint256",
          "name": "assetId_",
          "type": "uint256"
        }
      ],
      "name": "updateAssetListInL1",
      "outputs": [],
      "stateMutability": "nonpayable",
      "type": "function"
    },
    {
      "inputs": [
        {
          "internalType": "address",
          "name": "userL1Address_",
          "type": "address"
        },
        {
          "internalType": "uint256",
          "name": "ticker_",
          "type": "uint256"
        },
        {
          "internalType": "uint256",
          "name": "amount_",
          "type": "uint256"
        },
        {
          "internalType": "uint256",
          "name": "requestId_",
          "type": "uint256"
        }
      ],
      "name": "withdraw",
      "outputs": [],
      "stateMutability": "nonpayable",
      "type": "function"
    },
    {
      "inputs": [
        {
          "internalType": "address",
          "name": "userL1Address_",
          "type": "address"
        },
        {
          "internalType": "uint256",
          "name": "amount_",
          "type": "uint256"
        },
        {
          "internalType": "uint256",
          "name": "requestId_",
          "type": "uint256"
        }
      ],
      "name": "withdrawEth",
      "outputs": [],
      "stateMutability": "nonpayable",
      "type": "function"
    },
    {
      "inputs": [],
      "name": "withdrawalRequestContractAddress",
      "outputs": [
        {
          "internalType": "uint256",
          "name": "",
          "type": "uint256"
        }
      ],
      "stateMutability": "view",
      "type": "function"
    }
  ],
  "bytecode": "0x60a06040523480156200001157600080fd5b506040516200374e3803806200374e83398101604081905262000034916200016a565b6200003f33620000e3565b600180556001600160a01b0383166200005757600080fd5b620000628262000133565b6200006c57600080fd5b620000778162000133565b6200008157600080fd5b6001600160a01b038316608081905260038390556004829055604080519182526020820184905281018290527fc0744ae70a18c6b0b8273fc690a2933baf5f35e80164891726283a5361cf6f2f9060600160405180910390a1505050620001af565b600080546001600160a01b038381166001600160a01b0319831681178455604051919092169283917f8be0079c531659141344cd1fd0a4f28419497f9722a3daafe3b4186f6b6457e09190a35050565b600081158015906200016457507f080000000000001100000000000000000000000000000000000000000000000182105b92915050565b6000806000606084860312156200018057600080fd5b83516001600160a01b03811681146200019857600080fd5b602085015160409095015190969495509392505050565b6080516135446200020a6000396000818161020401528181610a0301528181610cc301528181610e08015281816114d3015281816116f10152818161214801528181612467015281816125af0152612b5501526135446000f3fe6080604052600436106101805760003560e01c80638ba9ab42116100d6578063b9b9836a1161007f578063d62bfdf311610059578063d62bfdf314610470578063e9bb84c214610490578063f2fde38b146104b057600080fd5b8063b9b9836a1461041a578063be6fa2021461043a578063c5b6e95c1461045a57600080fd5b80639d96323a116100b05780639d96323a14610392578063a0b4b301146103b2578063ab76fac6146103d257600080fd5b80638ba9ab42146103275780638da5cb5b146103475780638e96059f1461037257600080fd5b80634532d776116101385780634f8f1453116101125780634f8f1453146102dc578063715018a6146102f25780637361e28e1461030757600080fd5b80634532d7761461026b578063472857c41461028b5780634ca851d6146102c957600080fd5b80633765c0b8116101695780633765c0b8146101c757806339e730ab146101f25780633fcee0a51461024b57600080fd5b806312661c571461018557806319e64f58146101a7575b600080fd5b34801561019157600080fd5b506101a56101a03660046130d9565b6104d0565b005b3480156101b357600080fd5b506101a56101c2366004613114565b6105b3565b3480156101d357600080fd5b506101dc6106eb565b6040516101e99190613191565b60405180910390f35b3480156101fe57600080fd5b506102267f000000000000000000000000000000000000000000000000000000000000000081565b60405173ffffffffffffffffffffffffffffffffffffffff90911681526020016101e9565b34801561025757600080fd5b506101a56102663660046131a4565b610743565b34801561027757600080fd5b506101a56102863660046131c6565b610abf565b34801561029757600080fd5b506102bb6102a63660046130d9565b60009081526005602052604090206002015490565b6040519081526020016101e9565b6101a56102d73660046130d9565b610f31565b3480156102e857600080fd5b506102bb60035481565b3480156102fe57600080fd5b506101a561117d565b34801561031357600080fd5b506101a56103223660046131a4565b611191565b34801561033357600080fd5b506101a5610342366004613201565b611594565b34801561035357600080fd5b5060005473ffffffffffffffffffffffffffffffffffffffff16610226565b34801561037e57600080fd5b506101a561038d366004613233565b611874565b34801561039e57600080fd5b506101a56103ad366004613263565b611adf565b3480156103be57600080fd5b506102bb6103cd3660046130d9565b611fca565b3480156103de57600080fd5b506102266103ed3660046130d9565b600090815260056020526040902054610100900473ffffffffffffffffffffffffffffffffffffffff1690565b34801561042657600080fd5b506101a5610435366004613201565b611feb565b34801561044657600080fd5b506101a56104553660046130d9565b612259565b34801561046657600080fd5b506102bb60045481565b34801561047c57600080fd5b506101a561048b36600461328f565b612337565b34801561049c57600080fd5b506101a56104ab3660046132c4565b6126f7565b3480156104bc57600080fd5b506101a56104cb3660046132f0565b61283a565b6104d86128f1565b6104e181612972565b610572576040517f08c379a000000000000000000000000000000000000000000000000000000000815260206004820152602760248201527f494e56414c49445f46454c543a207769746864726177616c526571756573744160448201527f6464726573735f0000000000000000000000000000000000000000000000000060648201526084015b60405180910390fd5b60045460408051918252602082018390527f764e1d3af84341166dc299834bbec1c645e27997c78d8bc8aa574b59be67f4a4910160405180910390a1600455565b6105bb6128f1565b73ffffffffffffffffffffffffffffffffffffffff831661065e576040517f08c379a000000000000000000000000000000000000000000000000000000000815260206004820152603060248201527f546f6b656e205472616e73666572206661696c65643a20726563697069656e7460448201527f2061646472657373206973207a65726f000000000000000000000000000000006064820152608401610569565b61067f73ffffffffffffffffffffffffffffffffffffffff821684846129a8565b8073ffffffffffffffffffffffffffffffffffffffff168373ffffffffffffffffffffffffffffffffffffffff167f53dbb277b0320ca10e63b8c970af9dd327bb112ef350181c6e2cc4e5cbc390f6846040516106de91815260200190565b60405180910390a3505050565b6060600280548060200260200160405190810160405280929190818152602001828054801561073957602002820191906000526020600020905b815481526020019060010190808311610725575b5050505050905090565b61074b6128f1565b6002600154036107b7576040517f08c379a000000000000000000000000000000000000000000000000000000000815260206004820152601f60248201527f5265656e7472616e637947756172643a207265656e7472616e742063616c6c006044820152606401610569565b600260015560008281526005602052604090205460ff161561085b576040517f08c379a000000000000000000000000000000000000000000000000000000000815260206004820152602a60248201527f4661696c656420746f206164642061737365743a205469636b657220616c726560448201527f61647920657869737473000000000000000000000000000000000000000000006064820152608401610569565b60408051608080820183526001808352600060208085018281526002805487890190815260608089018b81528c8752600586528a872099518a5495517fffffffffffffffffffffff0000000000000000000000000000000000000000009096169015157fffffffffffffffffffffff0000000000000000000000000000000000000000ff161761010073ffffffffffffffffffffffffffffffffffffffff90961695909502949094178955905188870155915196810196909655855493840186559482527f405787fa12a823e0f2b7631cc41b3ba8828b3321ca811111fa75cd3aa3bb5ace90920187905584516003808252938101909552939290830190803683370190505090506001816000815181106109785761097861330d565b60200260200101818152505082816001815181106109985761099861330d565b60200260200101818152505081816002815181106109b8576109b861330d565b60209081029190910101526003546040517f2c9dd5c000000000000000000000000000000000000000000000000000000000815273ffffffffffffffffffffffffffffffffffffffff7f00000000000000000000000000000000000000000000000000000000000000001691632c9dd5c091610a399190859060040161333c565b6020604051808303816000875af1158015610a58573d6000803e3d6000fd5b505050506040513d601f19601f82011682018060405250810190610a7c9190613355565b5060408051848152602081018490527f06da16133d6c5df5d94a92ab55c0cbc73a196787eefc1314e37617dc915a14ae910160405180910390a150506001805550565b600260015403610b2b576040517f08c379a000000000000000000000000000000000000000000000000000000000815260206004820152601f60248201527f5265656e7472616e637947756172643a207265656e7472616e742063616c6c006044820152606401610569565b600260018181556000858152600560209081526040918290208251608081018452815460ff8116151580835261010090910473ffffffffffffffffffffffffffffffffffffffff16938201939093529381015492840192909252920154606082015290610c1a576040517f08c379a000000000000000000000000000000000000000000000000000000000815260206004820152602760248201527f5769746864726177616c206661696c65643a206e6f6e2d72656769737465726560448201527f64206173736574000000000000000000000000000000000000000000000000006064820152608401610569565b602081015173ffffffffffffffffffffffffffffffffffffffff16610cc1576040517f08c379a000000000000000000000000000000000000000000000000000000000815260206004820152602860248201527f5769746864726177616c206661696c65643a20746f6b656e206164647265737360448201527f206e6f74207365740000000000000000000000000000000000000000000000006064820152608401610569565b7f000000000000000000000000000000000000000000000000000000000000000073ffffffffffffffffffffffffffffffffffffffff16632c9dd5c0600454610d228873ffffffffffffffffffffffffffffffffffffffff16888888612a81565b6040518363ffffffff1660e01b8152600401610d3f92919061333c565b6020604051808303816000875af1158015610d5e573d6000803e3d6000fd5b505050506040513d601f19601f82011682018060405250810190610d829190613355565b50604080516001808252818301909252600091602080830190803683370190505090508281600081518110610db957610db961330d565b6020908102919091010152600480546040517f3e3aa6c500000000000000000000000000000000000000000000000000000000815260009273ffffffffffffffffffffffffffffffffffffffff7f00000000000000000000000000000000000000000000000000000000000000001692633e3aa6c592610e5d927f03b116e4e445ac98fc6252fd48e989f8a022057b94c0a80e24511414cce68be39188910161336e565b6020604051808303816000875af1158015610e7c573d6000803e3d6000fd5b505050506040513d601f19601f82011682018060405250810190610ea09190613355565b6020840151909150610ec99073ffffffffffffffffffffffffffffffffffffffff1688876129a8565b6040805186815260208101869052908101829052869073ffffffffffffffffffffffffffffffffffffffff8916907fa1b13611139003d418e6274627f4fb385f1e8591b09643b4431e153180127a439060600160405180910390a35050600180555050505050565b600260015403610f9d576040517f08c379a000000000000000000000000000000000000000000000000000000000815260206004820152601f60248201527f5265656e7472616e637947756172643a207265656e7472616e742063616c6c006044820152606401610569565b6002600155610fab81612972565b611011576040517f08c379a000000000000000000000000000000000000000000000000000000000815260206004820152601c60248201527f494e56414c49445f46454c543a20757365724c32416464726573735f000000006044820152606401610569565b600034116110a1576040517f08c379a000000000000000000000000000000000000000000000000000000000815260206004820152602160248201527f4465706f736974206661696c65643a206e6f2076616c75652070726f7669646560448201527f64000000000000000000000000000000000000000000000000000000000000006064820152608401610569565b6245544860005260056020527f8118c6a7b11d5060da52316a1b47b882907ca8ece09e1f2d24abbec4820373b1805460ff1661115f576040517f08c379a000000000000000000000000000000000000000000000000000000000815260206004820152602b60248201527f4465706f736974206661696c65643a20455448206e6f7420726567697374657260448201527f65642061732061737365740000000000000000000000000000000000000000006064820152608401610569565b60028101543390611174908290859034612b51565b50506001805550565b6111856128f1565b61118f6000612c65565b565b6111996128f1565b600260015403611205576040517f08c379a000000000000000000000000000000000000000000000000000000000815260206004820152601f60248201527f5265656e7472616e637947756172643a207265656e7472616e742063616c6c006044820152606401610569565b6002600181905554611273576040517f08c379a000000000000000000000000000000000000000000000000000000000815260206004820152601160248201527f4e6f7468696e6720746f2072656d6f76650000000000000000000000000000006044820152606401610569565b60008281526005602052604090206001810154815460ff16611317576040517f08c379a000000000000000000000000000000000000000000000000000000000815260206004820152602360248201527f4661696c656420746f2072656d6f7665206e6f6e2d6578697374696e6720617360448201527f73657400000000000000000000000000000000000000000000000000000000006064820152608401610569565b600254600090611329906001906133c5565b90506000600282815481106113405761134061330d565b90600052602060002001549050600060056000838152602001908152602001600020905083816001018190555081600285815481106113815761138161330d565b600091825260209091200155600280548061139e5761139e6133dc565b600082815260208082207fffffffffffffffffffffffffffffffffffffffffffffffffffffffffffffffff908401810183905590920190925588825260058152604080832080547fffffffffffffffffffffff0000000000000000000000000000000000000000001681556001810184905560020183905580516003808252608082019092529182016060803683370190505090506002816000815181106114485761144861330d565b60200260200101818152505087816001815181106114685761146861330d565b60200260200101818152505086816002815181106114885761148861330d565b60209081029190910101526003546040517f2c9dd5c000000000000000000000000000000000000000000000000000000000815273ffffffffffffffffffffffffffffffffffffffff7f00000000000000000000000000000000000000000000000000000000000000001691632c9dd5c0916115099190859060040161333c565b6020604051808303816000875af1158015611528573d6000803e3d6000fd5b505050506040513d601f19601f8201168201806040525081019061154c9190613355565b5060408051898152602081018990527f2af2b674e940dc9a5ac8152e53b7b1dab5ac73e557e9d5e0c6f1160cdf32ed96910160405180910390a1505060018055505050505050565b600260015403611600576040517f08c379a000000000000000000000000000000000000000000000000000000000815260206004820152601f60248201527f5265656e7472616e637947756172643a207265656e7472616e742063616c6c006044820152606401610569565b600260018181556000858152600560209081526040918290208251608081018452815460ff8116151580835261010090910473ffffffffffffffffffffffffffffffffffffffff169382019390935293810154928401929092529201546060820152906116ef576040517f08c379a000000000000000000000000000000000000000000000000000000000815260206004820152603260248201527f4661696c656420746f2063616c6c206465706f736974207265636c61696d3a2060448201527f6e6f6e2d6578697374696e6720617373657400000000000000000000000000006064820152608401610569565b7f000000000000000000000000000000000000000000000000000000000000000073ffffffffffffffffffffffffffffffffffffffff16636170ff1b867ec73f681176fc7b3f9693986fd7b14581e8d540519e27400e88b8713932be016117713373ffffffffffffffffffffffffffffffffffffffff16888760600151612cda565b866040518563ffffffff1660e01b8152600401611791949392919061340b565b600060405180830381600087803b1580156117ab57600080fd5b505af11580156117bf573d6000803e3d6000fd5b5050505062455448840361180057604051339084156108fc029085906000818181858888f193505050501580156117fa573d6000803e3d6000fd5b50611826565b60208101516118269073ffffffffffffffffffffffffffffffffffffffff1633856129a8565b60608101516040805185815260208101859052879133917f958f7925da904441a0678a5be692cad155e2fefaca4819453abb826f795eb99991015b60405180910390a4505060018055505050565b61187c6128f1565b73ffffffffffffffffffffffffffffffffffffffff811661191f576040517f08c379a000000000000000000000000000000000000000000000000000000000815260206004820152603260248201527f4661696c656420746f2073657420746f6b656e20616464726573733a207a657260448201527f6f20616464726573732070726f766964656400000000000000000000000000006064820152608401610569565b6000828152600560205260409020805460ff166119be576040517f08c379a000000000000000000000000000000000000000000000000000000000815260206004820152603160248201527f4661696c656420746f2073657420746f6b656e20616464726573733a206e6f6e60448201527f2d726567697374657265642061737365740000000000000000000000000000006064820152608401610569565b8054610100900473ffffffffffffffffffffffffffffffffffffffff1615611a68576040517f08c379a000000000000000000000000000000000000000000000000000000000815260206004820152602860248201527f4661696c656420746f2073657420746f6b656e20616464726573733a20416c7260448201527f65616479207365740000000000000000000000000000000000000000000000006064820152608401610569565b80547fffffffffffffffffffffff0000000000000000000000000000000000000000ff1661010073ffffffffffffffffffffffffffffffffffffffff841690810291909117825560405184907fda00af47c555ffbf1066050dc756812f86a5fd98a060206c6c1e2acff785048d90600090a3505050565b600260015403611b4b576040517f08c379a000000000000000000000000000000000000000000000000000000000815260206004820152601f60248201527f5265656e7472616e637947756172643a207265656e7472616e742063616c6c006044820152606401610569565b6002600155611b5983612972565b611bbf576040517f08c379a000000000000000000000000000000000000000000000000000000000815260206004820152601c60248201527f494e56414c49445f46454c543a20757365724c32416464726573735f000000006044820152606401610569565b611bc881612972565b611c2e576040517f08c379a000000000000000000000000000000000000000000000000000000000815260206004820152601560248201527f494e56414c49445f46454c543a20616d6f756e745f00000000000000000000006044820152606401610569565b6000828152600560209081526040918290208251608081018452815460ff8116151580835261010090910473ffffffffffffffffffffffffffffffffffffffff1693820193909352600182015493810193909352600201546060830152611d16576040517f08c379a0000000000000000000000000000000000000000000000000000000008152602060048201526024808201527f4465706f736974206661696c65643a206e6f6e2d72656769737465726564206160448201527f73736574000000000000000000000000000000000000000000000000000000006064820152608401610569565b602081015173ffffffffffffffffffffffffffffffffffffffff16611dbd576040517f08c379a000000000000000000000000000000000000000000000000000000000815260206004820152602560248201527f4465706f736974206661696c65643a20746f6b656e2061646472657373206e6f60448201527f74207365740000000000000000000000000000000000000000000000000000006064820152608401610569565b60208101516040517f70a08231000000000000000000000000000000000000000000000000000000008152306004820181905233929160009073ffffffffffffffffffffffffffffffffffffffff8416906370a0823190602401602060405180830381865afa158015611e34573d6000803e3d6000fd5b505050506040513d601f19601f82011682018060405250810190611e589190613355565b9050611e7c73ffffffffffffffffffffffffffffffffffffffff8416338489612d69565b6040517f70a0823100000000000000000000000000000000000000000000000000000000815273ffffffffffffffffffffffffffffffffffffffff8381166004830152600091908516906370a0823190602401602060405180830381865afa158015611eec573d6000803e3d6000fd5b505050506040513d601f19601f82011682018060405250810190611f109190613355565b9050611f1c878361343b565b811015611fab576040517f08c379a000000000000000000000000000000000000000000000000000000000815260206004820152602760248201527f4465706f736974206661696c65643a20496e76616c6964207472616e7366657260448201527f20616d6f756e74000000000000000000000000000000000000000000000000006064820152608401610569565b611fbb858a88606001518a612b51565b50506001805550505050505050565b60028181548110611fda57600080fd5b600091825260209091200154905081565b600260015403612057576040517f08c379a000000000000000000000000000000000000000000000000000000000815260206004820152601f60248201527f5265656e7472616e637947756172643a207265656e7472616e742063616c6c006044820152606401610569565b600260018181556000858152600560209081526040918290208251608081018452815460ff8116151580835261010090910473ffffffffffffffffffffffffffffffffffffffff16938201939093529381015492840192909252920154606082015290612146576040517f08c379a000000000000000000000000000000000000000000000000000000000815260206004820152603d60248201527f4661696c656420746f20696e697469617465206465706f7369742063616e636560448201527f6c20726571756573743a206e6f6e2d6578697374696e672061737365740000006064820152608401610569565b7f000000000000000000000000000000000000000000000000000000000000000073ffffffffffffffffffffffffffffffffffffffff16637a98660b867ec73f681176fc7b3f9693986fd7b14581e8d540519e27400e88b8713932be016121c83373ffffffffffffffffffffffffffffffffffffffff16888760600151612cda565b866040518563ffffffff1660e01b81526004016121e8949392919061340b565b600060405180830381600087803b15801561220257600080fd5b505af1158015612216573d6000803e3d6000fd5b5050505060608101516040805185815260208101859052879133917f6eac264bf6eef2951f9ed2c3fe2f3054af1522ff93b63d22b525d860d1cfb50b9101611861565b6122616128f1565b61226a81612972565b6122f6576040517f08c379a000000000000000000000000000000000000000000000000000000000815260206004820152602360248201527f494e56414c49445f46454c543a206173736574436f6e7472616374416464726560448201527f73735f00000000000000000000000000000000000000000000000000000000006064820152608401610569565b60035460408051918252602082018390527ff7195d3f8e010be77a76bd5215ad73d7de902ca66175718c01eae8f19ae26628910160405180910390a1600355565b6002600154036123a3576040517f08c379a000000000000000000000000000000000000000000000000000000000815260206004820152601f60248201527f5265656e7472616e637947756172643a207265656e7472616e742063616c6c006044820152606401610569565b60026001556245544860005260056020527f8118c6a7b11d5060da52316a1b47b882907ca8ece09e1f2d24abbec4820373b15460ff16612465576040517f08c379a000000000000000000000000000000000000000000000000000000000815260206004820152602b60248201527f4465706f736974206661696c65643a20455448206e6f7420726567697374657260448201527f65642061732061737365740000000000000000000000000000000000000000006064820152608401610569565b7f000000000000000000000000000000000000000000000000000000000000000073ffffffffffffffffffffffffffffffffffffffff16632c9dd5c06004546124c98673ffffffffffffffffffffffffffffffffffffffff16624554488787612a81565b6040518363ffffffff1660e01b81526004016124e692919061333c565b6020604051808303816000875af1158015612505573d6000803e3d6000fd5b505050506040513d601f19601f820116820180604052508101906125299190613355565b506040805160018082528183019092526000916020808301908036833701905050905081816000815181106125605761256061330d565b6020908102919091010152600480546040517f3e3aa6c500000000000000000000000000000000000000000000000000000000815260009273ffffffffffffffffffffffffffffffffffffffff7f00000000000000000000000000000000000000000000000000000000000000001692633e3aa6c592612604927f03b116e4e445ac98fc6252fd48e989f8a022057b94c0a80e24511414cce68be39188910161336e565b6020604051808303816000875af1158015612623573d6000803e3d6000fd5b505050506040513d601f19601f820116820180604052508101906126479190613355565b60405190915073ffffffffffffffffffffffffffffffffffffffff86169085156108fc029086906000818181858888f1935050505015801561268d573d6000803e3d6000fd5b506040805185815260208101859052908101829052624554489073ffffffffffffffffffffffffffffffffffffffff8716907fa1b13611139003d418e6274627f4fb385f1e8591b09643b4431e153180127a439060600160405180910390a3505060018055505050565b6126ff6128f1565b73ffffffffffffffffffffffffffffffffffffffff82166127a2576040517f08c379a000000000000000000000000000000000000000000000000000000000815260206004820152602e60248201527f455448205472616e73666572206661696c65643a20726563697069656e74206160448201527f646472657373206973207a65726f0000000000000000000000000000000000006064820152608401610569565b60405173ffffffffffffffffffffffffffffffffffffffff83169082156108fc029083906000818181858888f193505050501580156127e5573d6000803e3d6000fd5b508173ffffffffffffffffffffffffffffffffffffffff167f0b3acf92f1f5629ffbf3357bece56f61d2715cabe6552915c0cf496943b208ff8260405161282e91815260200190565b60405180910390a25050565b6128426128f1565b73ffffffffffffffffffffffffffffffffffffffff81166128e5576040517f08c379a000000000000000000000000000000000000000000000000000000000815260206004820152602660248201527f4f776e61626c653a206e6577206f776e657220697320746865207a65726f206160448201527f64647265737300000000000000000000000000000000000000000000000000006064820152608401610569565b6128ee81612c65565b50565b60005473ffffffffffffffffffffffffffffffffffffffff16331461118f576040517f08c379a000000000000000000000000000000000000000000000000000000000815260206004820181905260248201527f4f776e61626c653a2063616c6c6572206973206e6f7420746865206f776e65726044820152606401610569565b600081158015906129a257507f080000000000001100000000000000000000000000000000000000000000000182105b92915050565b60405173ffffffffffffffffffffffffffffffffffffffff8316602482015260448101829052612a7c9084907fa9059cbb00000000000000000000000000000000000000000000000000000000906064015b604080517fffffffffffffffffffffffffffffffffffffffffffffffffffffffffffffffe08184030181529190526020810180517bffffffffffffffffffffffffffffffffffffffffffffffffffffffff167fffffffff0000000000000000000000000000000000000000000000000000000090931692909217909152612dcd565b505050565b60408051600580825260c08201909252606091600091906020820160a080368337019050509050600381600081518110612abd57612abd61330d565b6020026020010181815250508581600181518110612add57612add61330d565b6020026020010181815250508481600281518110612afd57612afd61330d565b6020026020010181815250508381600381518110612b1d57612b1d61330d565b6020026020010181815250508281600481518110612b3d57612b3d61330d565b602090810291909101015295945050505050565b60007f000000000000000000000000000000000000000000000000000000000000000073ffffffffffffffffffffffffffffffffffffffff16633e3aa6c5857ec73f681176fc7b3f9693986fd7b14581e8d540519e27400e88b8713932be01612bbb898789612cda565b6040518463ffffffff1660e01b8152600401612bd99392919061336e565b6020604051808303816000875af1158015612bf8573d6000803e3d6000fd5b505050506040513d601f19601f82011682018060405250810190612c1c9190613355565b60408051848152602081018390529192508591859133917ffe87aeff807798d94d4b6c7f0b290f0a4d4994a3cb46faef49ab8a14495328b3910160405180910390a45050505050565b6000805473ffffffffffffffffffffffffffffffffffffffff8381167fffffffffffffffffffffffff0000000000000000000000000000000000000000831681178455604051919092169283917f8be0079c531659141344cd1fd0a4f28419497f9722a3daafe3b4186f6b6457e09190a35050565b60408051600380825260808201909252606091600091906020820184803683370190505090508481600081518110612d1457612d1461330d565b6020026020010181815250508381600181518110612d3457612d3461330d565b6020026020010181815250508281600281518110612d5457612d5461330d565b602090810291909101015290505b9392505050565b60405173ffffffffffffffffffffffffffffffffffffffff80851660248301528316604482015260648101829052612dc79085907f23b872dd00000000000000000000000000000000000000000000000000000000906084016129fa565b50505050565b6000612e2f826040518060400160405280602081526020017f5361666545524332303a206c6f772d6c6576656c2063616c6c206661696c65648152508573ffffffffffffffffffffffffffffffffffffffff16612ed99092919063ffffffff16565b805190915015612a7c5780806020019051810190612e4d9190613453565b612a7c576040517f08c379a000000000000000000000000000000000000000000000000000000000815260206004820152602a60248201527f5361666545524332303a204552433230206f7065726174696f6e20646964206e60448201527f6f742073756363656564000000000000000000000000000000000000000000006064820152608401610569565b6060612ee88484600085612ef0565b949350505050565b606082471015612f82576040517f08c379a000000000000000000000000000000000000000000000000000000000815260206004820152602660248201527f416464726573733a20696e73756666696369656e742062616c616e636520666f60448201527f722063616c6c00000000000000000000000000000000000000000000000000006064820152608401610569565b73ffffffffffffffffffffffffffffffffffffffff85163b613000576040517f08c379a000000000000000000000000000000000000000000000000000000000815260206004820152601d60248201527f416464726573733a2063616c6c20746f206e6f6e2d636f6e74726163740000006044820152606401610569565b6000808673ffffffffffffffffffffffffffffffffffffffff16858760405161302991906134a1565b60006040518083038185875af1925050503d8060008114613066576040519150601f19603f3d011682016040523d82523d6000602084013e61306b565b606091505b509150915061307b828286613086565b979650505050505050565b60608315613095575081612d62565b8251156130a55782518084602001fd5b816040517f08c379a000000000000000000000000000000000000000000000000000000000815260040161056991906134bd565b6000602082840312156130eb57600080fd5b5035919050565b73ffffffffffffffffffffffffffffffffffffffff811681146128ee57600080fd5b60008060006060848603121561312957600080fd5b8335613134816130f2565b925060208401359150604084013561314b816130f2565b809150509250925092565b600081518084526020808501945080840160005b838110156131865781518752958201959082019060010161316a565b509495945050505050565b602081526000612d626020830184613156565b600080604083850312156131b757600080fd5b50508035926020909101359150565b600080600080608085870312156131dc57600080fd5b84356131e7816130f2565b966020860135965060408601359560600135945092505050565b6000806000806080858703121561321757600080fd5b5050823594602084013594506040840135936060013592509050565b6000806040838503121561324657600080fd5b823591506020830135613258816130f2565b809150509250929050565b60008060006060848603121561327857600080fd5b505081359360208301359350604090920135919050565b6000806000606084860312156132a457600080fd5b83356132af816130f2565b95602085013595506040909401359392505050565b600080604083850312156132d757600080fd5b82356132e2816130f2565b946020939093013593505050565b60006020828403121561330257600080fd5b8135612d62816130f2565b7f4e487b7100000000000000000000000000000000000000000000000000000000600052603260045260246000fd5b828152604060208201526000612ee86040830184613156565b60006020828403121561336757600080fd5b5051919050565b83815282602082015260606040820152600061338d6060830184613156565b95945050505050565b7f4e487b7100000000000000000000000000000000000000000000000000000000600052601160045260246000fd5b6000828210156133d7576133d7613396565b500390565b7f4e487b7100000000000000000000000000000000000000000000000000000000600052603160045260246000fd5b84815283602082015260806040820152600061342a6080830185613156565b905082606083015295945050505050565b6000821982111561344e5761344e613396565b500190565b60006020828403121561346557600080fd5b81518015158114612d6257600080fd5b60005b83811015613490578181015183820152602001613478565b83811115612dc75750506000910152565b600082516134b3818460208701613475565b9190910192915050565b60208152600082518060208401526134dc816040850160208701613475565b601f017fffffffffffffffffffffffffffffffffffffffffffffffffffffffffffffffe016919091016040019291505056fea26469706673582212209af6408c7f7184f388016f90ebf1ea877a37b4dd868fc2677e6cb0356e4df01264736f6c634300080e0033",
  "linkReferences": {},
  "deployedLinkReferences": {}
}