{
  "_format": "hh-sol-artifact-1",
  "contractName": "L1ZKXContract",
  "sourceName": "contracts/L1ZKXContract.sol",
  "abi": [
    {
      "inputs": [
        {
          "internalType": "contract IStarknetCore",
          "name": "starknetCore_",
          "type": "address"
        },
        {
          "internalType": "uint256",
          "name": "assetContractAddress_",
          "type": "uint256"
        },
        {
          "internalType": "uint256",
          "name": "withdrawalRequestContractAddress_",
          "type": "uint256"
        }
      ],
      "stateMutability": "nonpayable",
      "type": "constructor"
    },
    {
      "anonymous": false,
      "inputs": [
        {
          "indexed": true,
          "internalType": "address payable",
          "name": "recipient",
          "type": "address"
        },
        {
          "indexed": false,
          "internalType": "uint256",
          "name": "amount",
          "type": "uint256"
        }
      ],
      "name": "LogAdminTransferEth",
      "type": "event"
    },
    {
      "anonymous": false,
      "inputs": [
        {
          "indexed": true,
          "internalType": "address",
          "name": "recipient",
          "type": "address"
        },
        {
          "indexed": false,
          "internalType": "uint256",
          "name": "amount",
          "type": "uint256"
        },
        {
          "indexed": true,
          "internalType": "address",
          "name": "tokenAddress",
          "type": "address"
        }
      ],
      "name": "LogAdminTransferFunds",
      "type": "event"
    },
    {
      "anonymous": false,
      "inputs": [
        {
          "indexed": false,
          "internalType": "uint256",
          "name": "oldAssetContract",
          "type": "uint256"
        },
        {
          "indexed": false,
          "internalType": "uint256",
          "name": "newAssetContract",
          "type": "uint256"
        }
      ],
      "name": "LogAssetContractAddressChanged",
      "type": "event"
    },
    {
      "anonymous": false,
      "inputs": [
        {
          "indexed": false,
          "internalType": "uint256",
          "name": "assetId",
          "type": "uint256"
        }
      ],
      "name": "LogAssetListUpdated",
      "type": "event"
    },
    {
      "anonymous": false,
      "inputs": [
        {
          "indexed": false,
          "internalType": "uint256",
          "name": "assetId",
          "type": "uint256"
        }
      ],
      "name": "LogAssetRemovedFromList",
      "type": "event"
    },
    {
      "anonymous": false,
      "inputs": [
        {
          "indexed": false,
          "internalType": "contract IStarknetCore",
          "name": "starknetCore",
          "type": "address"
        },
        {
          "indexed": false,
          "internalType": "uint256",
          "name": "assetContractAddress",
          "type": "uint256"
        },
        {
          "indexed": false,
          "internalType": "uint256",
          "name": "withdrawalRequestContractAddress",
          "type": "uint256"
        }
      ],
      "name": "LogContractInitialized",
      "type": "event"
    },
    {
      "anonymous": false,
      "inputs": [
        {
          "indexed": true,
          "internalType": "address",
          "name": "sender",
          "type": "address"
        },
        {
          "indexed": false,
          "internalType": "uint256",
          "name": "amount",
          "type": "uint256"
        },
        {
          "indexed": true,
          "internalType": "uint256",
          "name": "assetId",
          "type": "uint256"
        },
        {
          "indexed": true,
          "internalType": "uint256",
          "name": "l2Recipient",
          "type": "uint256"
        },
        {
          "indexed": false,
          "internalType": "bytes32",
          "name": "msgHash",
          "type": "bytes32"
        }
      ],
      "name": "LogDeposit",
      "type": "event"
    },
    {
      "anonymous": false,
      "inputs": [
        {
          "indexed": true,
          "internalType": "address",
          "name": "sender",
          "type": "address"
        },
        {
          "indexed": true,
          "internalType": "uint256",
          "name": "l2Recipient",
          "type": "uint256"
        },
        {
          "indexed": true,
          "internalType": "uint256",
          "name": "assetId",
          "type": "uint256"
        },
        {
          "indexed": false,
          "internalType": "uint256",
          "name": "amount",
          "type": "uint256"
        },
        {
          "indexed": false,
          "internalType": "uint256",
          "name": "nonce",
          "type": "uint256"
        }
      ],
      "name": "LogDepositCancelRequest",
      "type": "event"
    },
    {
      "anonymous": false,
      "inputs": [
        {
          "indexed": true,
          "internalType": "address",
          "name": "sender",
          "type": "address"
        },
        {
          "indexed": true,
          "internalType": "uint256",
          "name": "l2Recipient",
          "type": "uint256"
        },
        {
          "indexed": true,
          "internalType": "uint256",
          "name": "assetId",
          "type": "uint256"
        },
        {
          "indexed": false,
          "internalType": "uint256",
          "name": "amount",
          "type": "uint256"
        },
        {
          "indexed": false,
          "internalType": "uint256",
          "name": "nonce",
          "type": "uint256"
        }
      ],
      "name": "LogDepositReclaimed",
      "type": "event"
    },
    {
      "anonymous": false,
      "inputs": [
        {
          "indexed": true,
          "internalType": "uint256",
          "name": "assetId",
          "type": "uint256"
        },
        {
          "indexed": true,
          "internalType": "address",
          "name": "tokenContractAddress",
          "type": "address"
        }
      ],
      "name": "LogTokenContractAddressUpdated",
      "type": "event"
    },
    {
      "anonymous": false,
      "inputs": [
        {
          "indexed": true,
          "internalType": "address",
          "name": "recipient",
          "type": "address"
        },
        {
          "indexed": true,
          "internalType": "uint256",
          "name": "assetId",
          "type": "uint256"
        },
        {
          "indexed": false,
          "internalType": "uint256",
          "name": "amount",
          "type": "uint256"
        },
        {
          "indexed": false,
          "internalType": "uint256",
          "name": "requestId",
          "type": "uint256"
        },
        {
          "indexed": false,
          "internalType": "bytes32",
          "name": "msgHash",
          "type": "bytes32"
        }
      ],
      "name": "LogWithdrawal",
      "type": "event"
    },
    {
      "anonymous": false,
      "inputs": [
        {
          "indexed": false,
          "internalType": "uint256",
          "name": "oldWithdrawalContract",
          "type": "uint256"
        },
        {
          "indexed": false,
          "internalType": "uint256",
          "name": "newWithdrawalContract",
          "type": "uint256"
        }
      ],
      "name": "LogWithdrawalRequestContractChanged",
      "type": "event"
    },
    {
      "anonymous": false,
      "inputs": [
        {
          "indexed": true,
          "internalType": "address",
          "name": "previousOwner",
          "type": "address"
        },
        {
          "indexed": true,
          "internalType": "address",
          "name": "newOwner",
          "type": "address"
        }
      ],
      "name": "OwnershipTransferred",
      "type": "event"
    },
    {
      "inputs": [],
      "name": "assetContractAddress",
      "outputs": [
        {
          "internalType": "uint256",
          "name": "",
          "type": "uint256"
        }
      ],
      "stateMutability": "view",
      "type": "function"
    },
    {
      "inputs": [
        {
          "internalType": "uint256",
          "name": "assetId_",
          "type": "uint256"
        }
      ],
      "name": "assetExists",
      "outputs": [
        {
          "internalType": "bool",
          "name": "",
          "type": "bool"
        }
      ],
      "stateMutability": "view",
      "type": "function"
    },
    {
      "inputs": [
        {
          "internalType": "uint256",
          "name": "",
          "type": "uint256"
        }
      ],
      "name": "assetList",
      "outputs": [
        {
          "internalType": "uint256",
          "name": "",
          "type": "uint256"
        }
      ],
      "stateMutability": "view",
      "type": "function"
    },
    {
      "inputs": [
        {
          "internalType": "uint256",
          "name": "userL2Address_",
          "type": "uint256"
        },
        {
          "internalType": "uint256",
          "name": "assetId_",
          "type": "uint256"
        },
        {
          "internalType": "uint256",
          "name": "amount_",
          "type": "uint256"
        },
        {
          "internalType": "uint256",
          "name": "nonce_",
          "type": "uint256"
        }
      ],
      "name": "depositCancelRequest",
      "outputs": [],
      "stateMutability": "nonpayable",
      "type": "function"
    },
    {
      "inputs": [
        {
          "internalType": "uint256",
          "name": "userL2Address_",
          "type": "uint256"
        }
      ],
      "name": "depositEthToL1",
      "outputs": [],
      "stateMutability": "payable",
      "type": "function"
    },
    {
      "inputs": [
        {
          "internalType": "uint256",
          "name": "userL2Address_",
          "type": "uint256"
        },
        {
          "internalType": "uint256",
          "name": "assetId_",
          "type": "uint256"
        },
        {
          "internalType": "uint256",
          "name": "amount_",
          "type": "uint256"
        },
        {
          "internalType": "uint256",
          "name": "nonce_",
          "type": "uint256"
        }
      ],
      "name": "depositReclaim",
      "outputs": [],
      "stateMutability": "nonpayable",
      "type": "function"
    },
    {
      "inputs": [
        {
          "internalType": "uint256",
          "name": "userL2Address_",
          "type": "uint256"
        },
        {
          "internalType": "uint256",
          "name": "assetId_",
          "type": "uint256"
        },
        {
          "internalType": "uint256",
          "name": "amount_",
          "type": "uint256"
        }
      ],
      "name": "depositToL1",
      "outputs": [],
      "stateMutability": "nonpayable",
      "type": "function"
    },
    {
      "inputs": [],
      "name": "getAssetList",
      "outputs": [
        {
          "internalType": "uint256[]",
          "name": "",
          "type": "uint256[]"
        }
      ],
      "stateMutability": "view",
      "type": "function"
    },
    {
      "inputs": [],
      "name": "owner",
      "outputs": [
        {
          "internalType": "address",
          "name": "",
          "type": "address"
        }
      ],
      "stateMutability": "view",
      "type": "function"
    },
    {
      "inputs": [
        {
          "internalType": "uint256",
          "name": "assetId_",
          "type": "uint256"
        }
      ],
      "name": "removeAssetFromList",
      "outputs": [],
      "stateMutability": "nonpayable",
      "type": "function"
    },
    {
      "inputs": [],
      "name": "renounceOwnership",
      "outputs": [],
      "stateMutability": "nonpayable",
      "type": "function"
    },
    {
      "inputs": [
        {
          "internalType": "uint256",
          "name": "assetContractAddress_",
          "type": "uint256"
        }
      ],
      "name": "setAssetContractAddress",
      "outputs": [],
      "stateMutability": "nonpayable",
      "type": "function"
    },
    {
      "inputs": [
        {
          "internalType": "uint256",
          "name": "assetId_",
          "type": "uint256"
        },
        {
          "internalType": "address",
          "name": "tokenContractAddress_",
          "type": "address"
        }
      ],
      "name": "setTokenContractAddress",
      "outputs": [],
      "stateMutability": "nonpayable",
      "type": "function"
    },
    {
      "inputs": [
        {
          "internalType": "uint256",
          "name": "withdrawalRequestAddress_",
          "type": "uint256"
        }
      ],
      "name": "setWithdrawalRequestAddress",
      "outputs": [],
      "stateMutability": "nonpayable",
      "type": "function"
    },
    {
      "inputs": [],
      "name": "starknetCore",
      "outputs": [
        {
          "internalType": "contract IStarknetCore",
          "name": "",
          "type": "address"
        }
      ],
      "stateMutability": "view",
      "type": "function"
    },
    {
      "inputs": [
        {
          "internalType": "uint256",
          "name": "assetId_",
          "type": "uint256"
        }
      ],
      "name": "tokenContractAddress",
      "outputs": [
        {
          "internalType": "address",
          "name": "",
          "type": "address"
        }
      ],
      "stateMutability": "view",
      "type": "function"
    },
    {
      "inputs": [
        {
          "internalType": "address payable",
          "name": "recipient_",
          "type": "address"
        },
        {
          "internalType": "uint256",
          "name": "amount_",
          "type": "uint256"
        }
      ],
      "name": "transferEth",
      "outputs": [],
      "stateMutability": "nonpayable",
      "type": "function"
    },
    {
      "inputs": [
        {
          "internalType": "address",
          "name": "recipient_",
          "type": "address"
        },
        {
          "internalType": "uint256",
          "name": "amount_",
          "type": "uint256"
        },
        {
          "internalType": "address",
          "name": "tokenAddress_",
          "type": "address"
        }
      ],
      "name": "transferFunds",
      "outputs": [],
      "stateMutability": "nonpayable",
      "type": "function"
    },
    {
      "inputs": [
        {
          "internalType": "address",
          "name": "newOwner",
          "type": "address"
        }
      ],
      "name": "transferOwnership",
      "outputs": [],
      "stateMutability": "nonpayable",
      "type": "function"
    },
    {
      "inputs": [
        {
          "internalType": "uint256",
          "name": "assetId_",
          "type": "uint256"
        }
      ],
      "name": "updateAssetListInL1",
      "outputs": [],
      "stateMutability": "nonpayable",
      "type": "function"
    },
    {
      "inputs": [
        {
          "internalType": "address",
          "name": "userL1Address_",
          "type": "address"
        },
        {
          "internalType": "uint256",
          "name": "assetId_",
          "type": "uint256"
        },
        {
          "internalType": "uint256",
          "name": "amount_",
          "type": "uint256"
        },
        {
          "internalType": "uint256",
          "name": "requestId_",
          "type": "uint256"
        }
      ],
      "name": "withdraw",
      "outputs": [],
      "stateMutability": "nonpayable",
      "type": "function"
    },
    {
      "inputs": [
        {
          "internalType": "address",
          "name": "userL1Address_",
          "type": "address"
        },
        {
          "internalType": "uint256",
          "name": "amount_",
          "type": "uint256"
        },
        {
          "internalType": "uint256",
          "name": "requestId_",
          "type": "uint256"
        }
      ],
      "name": "withdrawEth",
      "outputs": [],
      "stateMutability": "nonpayable",
      "type": "function"
    },
    {
      "inputs": [],
      "name": "withdrawalRequestContractAddress",
      "outputs": [
        {
          "internalType": "uint256",
          "name": "",
          "type": "uint256"
        }
      ],
      "stateMutability": "view",
      "type": "function"
    }
  ],
  "bytecode": "0x60a06040523480156200001157600080fd5b50604051620038cf380380620038cf83398101604081905262000034916200016a565b6200003f33620000e3565b600180556001600160a01b0383166200005757600080fd5b620000628262000133565b6200006c57600080fd5b620000778162000133565b6200008157600080fd5b6001600160a01b038316608081905260038390556004829055604080519182526020820184905281018290527fc0744ae70a18c6b0b8273fc690a2933baf5f35e80164891726283a5361cf6f2f9060600160405180910390a1505050620001af565b600080546001600160a01b038381166001600160a01b0319831681178455604051919092169283917f8be0079c531659141344cd1fd0a4f28419497f9722a3daafe3b4186f6b6457e09190a35050565b600081158015906200016457507f080000000000001100000000000000000000000000000000000000000000000182105b92915050565b6000806000606084860312156200018057600080fd5b83516001600160a01b03811681146200019857600080fd5b602085015160409095015190969495509392505050565b6080516136c56200020a600039600081816102240152818161089101528181610cd501528181610e1a0152818161130b01528181611de7015281816122ed015281816124d70152818161261f0152612cf801526136c56000f3fe6080604052600436106101805760003560e01c80638da5cb5b116100d6578063be6fa2021161007f578063d62bfdf311610059578063d62bfdf314610482578063e9bb84c2146104a2578063f2fde38b146104c257600080fd5b8063be6fa2021461042c578063c5b6e95c1461044c578063d4a726281461046257600080fd5b8063a0b4b301116100b0578063a0b4b301146103a2578063ab76fac6146103c2578063b9b9836a1461040c57600080fd5b80638da5cb5b146103375780638e96059f146103625780639d96323a1461038257600080fd5b80634532d77611610138578063518e2bdd11610112578063518e2bdd146102c2578063715018a6146103025780638ba9ab421461031757600080fd5b80634532d7761461026b5780634ca851d61461028b5780634f8f14531461029e57600080fd5b806319e64f581161016957806319e64f58146101c75780633765c0b8146101e757806339e730ab1461021257600080fd5b806312661c5714610185578063163e7352146101a7575b600080fd5b34801561019157600080fd5b506101a56101a036600461327c565b6104e2565b005b3480156101b357600080fd5b506101a56101c236600461327c565b6105c5565b3480156101d357600080fd5b506101a56101e23660046132b7565b610946565b3480156101f357600080fd5b506101fc610a7e565b6040516102099190613334565b60405180910390f35b34801561021e57600080fd5b506102467f000000000000000000000000000000000000000000000000000000000000000081565b60405173ffffffffffffffffffffffffffffffffffffffff9091168152602001610209565b34801561027757600080fd5b506101a5610286366004613347565b610ad6565b6101a561029936600461327c565b610f43565b3480156102aa57600080fd5b506102b460035481565b604051908152602001610209565b3480156102ce57600080fd5b506102f26102dd36600461327c565b60009081526005602052604090205460ff1690565b6040519015158152602001610209565b34801561030e57600080fd5b506101a561118a565b34801561032357600080fd5b506101a5610332366004613382565b61119e565b34801561034357600080fd5b5060005473ffffffffffffffffffffffffffffffffffffffff16610246565b34801561036e57600080fd5b506101a561037d3660046133b4565b611507565b34801561038e57600080fd5b506101a561039d3660046133e4565b611776565b3480156103ae57600080fd5b506102b46103bd36600461327c565b611c59565b3480156103ce57600080fd5b506102466103dd36600461327c565b6000908152600560205260409020546301000000900473ffffffffffffffffffffffffffffffffffffffff1690565b34801561041857600080fd5b506101a5610427366004613382565b611c7a565b34801561043857600080fd5b506101a561044736600461327c565b611ec6565b34801561045857600080fd5b506102b460045481565b34801561046e57600080fd5b506101a561047d36600461327c565b611fa4565b34801561048e57600080fd5b506101a561049d366004613410565b6123a7565b3480156104ae57600080fd5b506101a56104bd366004613445565b612813565b3480156104ce57600080fd5b506101a56104dd366004613471565b6129dd565b6104ea612a94565b6104f381612b15565b610584576040517f08c379a000000000000000000000000000000000000000000000000000000000815260206004820152602760248201527f494e56414c49445f46454c543a207769746864726177616c526571756573744160448201527f6464726573735f0000000000000000000000000000000000000000000000000060648201526084015b60405180910390fd5b60045460408051918252602082018390527f764e1d3af84341166dc299834bbec1c645e27997c78d8bc8aa574b59be67f4a4910160405180910390a1600455565b6105cd612a94565b600260015403610639576040517f08c379a000000000000000000000000000000000000000000000000000000000815260206004820152601f60248201527f5265656e7472616e637947756172643a207265656e7472616e742063616c6c00604482015260640161057b565b600260015560008181526005602052604090205460ff16156106dd576040517f08c379a000000000000000000000000000000000000000000000000000000000815260206004820152602c60248201527f4661696c656420746f206164642061737365743a20417373657420494420616c60448201527f7265616479206578697374730000000000000000000000000000000000000000606482015260840161057b565b6040805160608101825260018082526002805461ffff90811660208086019182526000868801818152898252600590925296872095518654925191517fffffffffffffffffffffffffffffffffffffffffffffffffffffffffff0000009093169015157fffffffffffffffffffffffffffffffffffffffffffffffffffffffffff0000ff16176101009190931602919091177fffffffffffffffffff0000000000000000000000000000000000000000ffffff16630100000073ffffffffffffffffffffffffffffffffffffffff9092169190910217909255815490810182558183527f405787fa12a823e0f2b7631cc41b3ba8828b3321ca811111fa75cd3aa3bb5ace0183905560405190808252806020026020018201604052801561080e578160200160208202803683370190505b5090506001816000815181106108265761082661348e565b60200260200101818152505081816001815181106108465761084661348e565b60209081029190910101526003546040517f2c9dd5c000000000000000000000000000000000000000000000000000000000815273ffffffffffffffffffffffffffffffffffffffff7f00000000000000000000000000000000000000000000000000000000000000001691632c9dd5c0916108c7919085906004016134bd565b6020604051808303816000875af11580156108e6573d6000803e3d6000fd5b505050506040513d601f19601f8201168201806040525081019061090a91906134d6565b506040518281527f69706bc21486356f27e9abe6d7e70e013da7bb1a868538c67c4305dbc8dea0f59060200160405180910390a1505060018055565b61094e612a94565b73ffffffffffffffffffffffffffffffffffffffff83166109f1576040517f08c379a000000000000000000000000000000000000000000000000000000000815260206004820152603060248201527f546f6b656e205472616e73666572206661696c65643a20726563697069656e7460448201527f2061646472657373206973207a65726f00000000000000000000000000000000606482015260840161057b565b610a1273ffffffffffffffffffffffffffffffffffffffff82168484612b4b565b8073ffffffffffffffffffffffffffffffffffffffff168373ffffffffffffffffffffffffffffffffffffffff167f53dbb277b0320ca10e63b8c970af9dd327bb112ef350181c6e2cc4e5cbc390f684604051610a7191815260200190565b60405180910390a3505050565b60606002805480602002602001604051908101604052809291908181526020018280548015610acc57602002820191906000526020600020905b815481526020019060010190808311610ab8575b5050505050905090565b600260015403610b42576040517f08c379a000000000000000000000000000000000000000000000000000000000815260206004820152601f60248201527f5265656e7472616e637947756172643a207265656e7472616e742063616c6c00604482015260640161057b565b60026001556000838152600560209081526040918290208251606081018452905460ff81161515808352610100820461ffff16938301939093526301000000900473ffffffffffffffffffffffffffffffffffffffff1692810192909252610c2c576040517f08c379a000000000000000000000000000000000000000000000000000000000815260206004820152602760248201527f5769746864726177616c206661696c65643a206e6f6e2d72656769737465726560448201527f6420617373657400000000000000000000000000000000000000000000000000606482015260840161057b565b604081015173ffffffffffffffffffffffffffffffffffffffff16610cd3576040517f08c379a000000000000000000000000000000000000000000000000000000000815260206004820152602860248201527f5769746864726177616c206661696c65643a20746f6b656e206164647265737360448201527f206e6f7420736574000000000000000000000000000000000000000000000000606482015260840161057b565b7f000000000000000000000000000000000000000000000000000000000000000073ffffffffffffffffffffffffffffffffffffffff16632c9dd5c0600454610d348873ffffffffffffffffffffffffffffffffffffffff16888888612c24565b6040518363ffffffff1660e01b8152600401610d519291906134bd565b6020604051808303816000875af1158015610d70573d6000803e3d6000fd5b505050506040513d601f19601f82011682018060405250810190610d9491906134d6565b50604080516001808252818301909252600091602080830190803683370190505090508281600081518110610dcb57610dcb61348e565b6020908102919091010152600480546040517f3e3aa6c500000000000000000000000000000000000000000000000000000000815260009273ffffffffffffffffffffffffffffffffffffffff7f00000000000000000000000000000000000000000000000000000000000000001692633e3aa6c592610e6f927f03b116e4e445ac98fc6252fd48e989f8a022057b94c0a80e24511414cce68be3918891016134ef565b6020604051808303816000875af1158015610e8e573d6000803e3d6000fd5b505050506040513d601f19601f82011682018060405250810190610eb291906134d6565b6040840151909150610edb9073ffffffffffffffffffffffffffffffffffffffff168887612b4b565b6040805186815260208101869052908101829052869073ffffffffffffffffffffffffffffffffffffffff8916907fa1b13611139003d418e6274627f4fb385f1e8591b09643b4431e153180127a439060600160405180910390a35050600180555050505050565b600260015403610faf576040517f08c379a000000000000000000000000000000000000000000000000000000000815260206004820152601f60248201527f5265656e7472616e637947756172643a207265656e7472616e742063616c6c00604482015260640161057b565b6002600155610fbd81612b15565b611023576040517f08c379a000000000000000000000000000000000000000000000000000000000815260206004820152601c60248201527f494e56414c49445f46454c543a20757365724c32416464726573735f00000000604482015260640161057b565b600034116110b3576040517f08c379a000000000000000000000000000000000000000000000000000000000815260206004820152602160248201527f4465706f736974206661696c65643a206e6f2076616c75652070726f7669646560448201527f6400000000000000000000000000000000000000000000000000000000000000606482015260840161057b565b6245544860005260056020527f8118c6a7b11d5060da52316a1b47b882907ca8ece09e1f2d24abbec4820373b1805460ff16611171576040517f08c379a000000000000000000000000000000000000000000000000000000000815260206004820152602b60248201527f4465706f736974206661696c65643a20455448206e6f7420726567697374657260448201527f6564206173206173736574000000000000000000000000000000000000000000606482015260840161057b565b3361118181846245544834612cf4565b50506001805550565b611192612a94565b61119c6000612e08565b565b60026001540361120a576040517f08c379a000000000000000000000000000000000000000000000000000000000815260206004820152601f60248201527f5265656e7472616e637947756172643a207265656e7472616e742063616c6c00604482015260640161057b565b60026001556000838152600560209081526040918290208251606081018452905460ff81161515808352610100820461ffff16938301939093526301000000900473ffffffffffffffffffffffffffffffffffffffff16928101929092526112f4576040517f08c379a000000000000000000000000000000000000000000000000000000000815260206004820152603260248201527f4661696c656420746f2063616c6c206465706f736974207265636c61696d3a2060448201527f6e6f6e2d6578697374696e672061737365740000000000000000000000000000606482015260840161057b565b73ffffffffffffffffffffffffffffffffffffffff7f000000000000000000000000000000000000000000000000000000000000000016636170ff1b867ec73f681176fc7b3f9693986fd7b14581e8d540519e27400e88b8713932be0161135c33888a612e7d565b866040518563ffffffff1660e01b815260040161137c9493929190613517565b600060405180830381600087803b15801561139657600080fd5b505af11580156113aa573d6000803e3d6000fd5b5050505062455448840361149657604051600090339085908381818185875af1925050503d80600081146113fa576040519150601f19603f3d011682016040523d82523d6000602084013e6113ff565b606091505b5050905080611490576040517f08c379a000000000000000000000000000000000000000000000000000000000815260206004820152602b60248201527f4465706f736974207265636c61696d206661696c65643a20455448205472616e60448201527f73666572206661696c6564000000000000000000000000000000000000000000606482015260840161057b565b506114bc565b60408101516114bc9073ffffffffffffffffffffffffffffffffffffffff163385612b4b565b60408051848152602081018490528591879133917f958f7925da904441a0678a5be692cad155e2fefaca4819453abb826f795eb99991015b60405180910390a4505060018055505050565b61150f612a94565b73ffffffffffffffffffffffffffffffffffffffff81166115b2576040517f08c379a000000000000000000000000000000000000000000000000000000000815260206004820152603260248201527f4661696c656420746f2073657420746f6b656e20616464726573733a207a657260448201527f6f20616464726573732070726f76696465640000000000000000000000000000606482015260840161057b565b6000828152600560205260409020805460ff16611651576040517f08c379a000000000000000000000000000000000000000000000000000000000815260206004820152603160248201527f4661696c656420746f2073657420746f6b656e20616464726573733a206e6f6e60448201527f2d72656769737465726564206173736574000000000000000000000000000000606482015260840161057b565b80546301000000900473ffffffffffffffffffffffffffffffffffffffff16156116fd576040517f08c379a000000000000000000000000000000000000000000000000000000000815260206004820152602860248201527f4661696c656420746f2073657420746f6b656e20616464726573733a20416c7260448201527f6561647920736574000000000000000000000000000000000000000000000000606482015260840161057b565b80547fffffffffffffffffff0000000000000000000000000000000000000000ffffff16630100000073ffffffffffffffffffffffffffffffffffffffff841690810291909117825560405184907fda00af47c555ffbf1066050dc756812f86a5fd98a060206c6c1e2acff785048d90600090a3505050565b6002600154036117e2576040517f08c379a000000000000000000000000000000000000000000000000000000000815260206004820152601f60248201527f5265656e7472616e637947756172643a207265656e7472616e742063616c6c00604482015260640161057b565b60026001556117f083612b15565b611856576040517f08c379a000000000000000000000000000000000000000000000000000000000815260206004820152601c60248201527f494e56414c49445f46454c543a20757365724c32416464726573735f00000000604482015260640161057b565b61185f81612b15565b6118c5576040517f08c379a000000000000000000000000000000000000000000000000000000000815260206004820152601560248201527f494e56414c49445f46454c543a20616d6f756e745f0000000000000000000000604482015260640161057b565b6000828152600560209081526040918290208251606081018452905460ff81161515808352610100820461ffff16938301939093526301000000900473ffffffffffffffffffffffffffffffffffffffff16928101929092526119a9576040517f08c379a0000000000000000000000000000000000000000000000000000000008152602060048201526024808201527f4465706f736974206661696c65643a206e6f6e2d72656769737465726564206160448201527f7373657400000000000000000000000000000000000000000000000000000000606482015260840161057b565b604081015173ffffffffffffffffffffffffffffffffffffffff16611a50576040517f08c379a000000000000000000000000000000000000000000000000000000000815260206004820152602560248201527f4465706f736974206661696c65643a20746f6b656e2061646472657373206e6f60448201527f7420736574000000000000000000000000000000000000000000000000000000606482015260840161057b565b60408181015190517f70a08231000000000000000000000000000000000000000000000000000000008152306004820181905233929160009073ffffffffffffffffffffffffffffffffffffffff8416906370a0823190602401602060405180830381865afa158015611ac7573d6000803e3d6000fd5b505050506040513d601f19601f82011682018060405250810190611aeb91906134d6565b9050611b0f73ffffffffffffffffffffffffffffffffffffffff8416338489612f0c565b6040517f70a0823100000000000000000000000000000000000000000000000000000000815273ffffffffffffffffffffffffffffffffffffffff8381166004830152600091908516906370a0823190602401602060405180830381865afa158015611b7f573d6000803e3d6000fd5b505050506040513d601f19601f82011682018060405250810190611ba391906134d6565b9050611baf8783613576565b811015611c3e576040517f08c379a000000000000000000000000000000000000000000000000000000000815260206004820152602760248201527f4465706f736974206661696c65643a20496e76616c6964207472616e7366657260448201527f20616d6f756e7400000000000000000000000000000000000000000000000000606482015260840161057b565b611c4a858a8a8a612cf4565b50506001805550505050505050565b60028181548110611c6957600080fd5b600091825260209091200154905081565b600260015403611ce6576040517f08c379a000000000000000000000000000000000000000000000000000000000815260206004820152601f60248201527f5265656e7472616e637947756172643a207265656e7472616e742063616c6c00604482015260640161057b565b60026001556000838152600560209081526040918290208251606081018452905460ff81161515808352610100820461ffff16938301939093526301000000900473ffffffffffffffffffffffffffffffffffffffff1692810192909252611dd0576040517f08c379a000000000000000000000000000000000000000000000000000000000815260206004820152603d60248201527f4661696c656420746f20696e697469617465206465706f7369742063616e636560448201527f6c20726571756573743a206e6f6e2d6578697374696e67206173736574000000606482015260840161057b565b73ffffffffffffffffffffffffffffffffffffffff7f000000000000000000000000000000000000000000000000000000000000000016637a98660b867ec73f681176fc7b3f9693986fd7b14581e8d540519e27400e88b8713932be01611e3833888a612e7d565b866040518563ffffffff1660e01b8152600401611e589493929190613517565b600060405180830381600087803b158015611e7257600080fd5b505af1158015611e86573d6000803e3d6000fd5b5050604080518681526020810186905287935088925033917f6eac264bf6eef2951f9ed2c3fe2f3054af1522ff93b63d22b525d860d1cfb50b91016114f4565b611ece612a94565b611ed781612b15565b611f63576040517f08c379a000000000000000000000000000000000000000000000000000000000815260206004820152602360248201527f494e56414c49445f46454c543a206173736574436f6e7472616374416464726560448201527f73735f0000000000000000000000000000000000000000000000000000000000606482015260840161057b565b60035460408051918252602082018390527ff7195d3f8e010be77a76bd5215ad73d7de902ca66175718c01eae8f19ae26628910160405180910390a1600355565b611fac612a94565b600260015403612018576040517f08c379a000000000000000000000000000000000000000000000000000000000815260206004820152601f60248201527f5265656e7472616e637947756172643a207265656e7472616e742063616c6c00604482015260640161057b565b6002600181905554612086576040517f08c379a000000000000000000000000000000000000000000000000000000000815260206004820152601160248201527f4e6f7468696e6720746f2072656d6f7665000000000000000000000000000000604482015260640161057b565b6000818152600560205260409020805461ffff6101008204169060ff1661212f576040517f08c379a000000000000000000000000000000000000000000000000000000000815260206004820152602360248201527f4661696c656420746f2072656d6f7665206e6f6e2d6578697374696e6720617360448201527f7365740000000000000000000000000000000000000000000000000000000000606482015260840161057b565b6002546000906121419060019061358e565b90506000600282815481106121585761215861348e565b600091825260208083209091015480835260059091526040909120805461ffff861661010081027fffffffffffffffffffffffffffffffffffffffffffffffffffffffffff0000ff9092169190911782556002805493945091928492919081106121c4576121c461348e565b60009182526020909120015560028054806121e1576121e16135a5565b600082815260208082207fffffffffffffffffffffffffffffffffffffffffffffffffffffffffffffffff908401810183905590920190925587825260059052604080822080547fffffffffffffffffff00000000000000000000000000000000000000000000001690558051600280825260608201909252908160200160208202803683370190505090506002816000815181106122825761228261348e565b60200260200101818152505086816001815181106122a2576122a261348e565b60209081029190910101526003546040517f2c9dd5c000000000000000000000000000000000000000000000000000000000815273ffffffffffffffffffffffffffffffffffffffff7f00000000000000000000000000000000000000000000000000000000000000001691632c9dd5c091612323919085906004016134bd565b6020604051808303816000875af1158015612342573d6000803e3d6000fd5b505050506040513d601f19601f8201168201806040525081019061236691906134d6565b506040518781527fe8422f1e2903275bd7b7d2ce101db60c4bdba57550be99ae12f49241b358c4039060200160405180910390a15050600180555050505050565b600260015403612413576040517f08c379a000000000000000000000000000000000000000000000000000000000815260206004820152601f60248201527f5265656e7472616e637947756172643a207265656e7472616e742063616c6c00604482015260640161057b565b60026001556245544860005260056020527f8118c6a7b11d5060da52316a1b47b882907ca8ece09e1f2d24abbec4820373b15460ff166124d5576040517f08c379a000000000000000000000000000000000000000000000000000000000815260206004820152602c60248201527f5769746864726177206661696c65643a20455448206e6f74207265676973746560448201527f7265642061732061737365740000000000000000000000000000000000000000606482015260840161057b565b7f000000000000000000000000000000000000000000000000000000000000000073ffffffffffffffffffffffffffffffffffffffff16632c9dd5c06004546125398673ffffffffffffffffffffffffffffffffffffffff16624554488787612c24565b6040518363ffffffff1660e01b81526004016125569291906134bd565b6020604051808303816000875af1158015612575573d6000803e3d6000fd5b505050506040513d601f19601f8201168201806040525081019061259991906134d6565b506040805160018082528183019092526000916020808301908036833701905050905081816000815181106125d0576125d061348e565b6020908102919091010152600480546040517f3e3aa6c500000000000000000000000000000000000000000000000000000000815260009273ffffffffffffffffffffffffffffffffffffffff7f00000000000000000000000000000000000000000000000000000000000000001692633e3aa6c592612674927f03b116e4e445ac98fc6252fd48e989f8a022057b94c0a80e24511414cce68be3918891016134ef565b6020604051808303816000875af1158015612693573d6000803e3d6000fd5b505050506040513d601f19601f820116820180604052508101906126b791906134d6565b905060008573ffffffffffffffffffffffffffffffffffffffff168560405160006040518083038185875af1925050503d8060008114612713576040519150601f19603f3d011682016040523d82523d6000602084013e612718565b606091505b50509050806127a9576040517f08c379a000000000000000000000000000000000000000000000000000000000815260206004820152602660248201527f5769746864726177616c206661696c65643a20455448205472616e736665722060448201527f6661696c65640000000000000000000000000000000000000000000000000000606482015260840161057b565b6040805186815260208101869052908101839052624554489073ffffffffffffffffffffffffffffffffffffffff8816907fa1b13611139003d418e6274627f4fb385f1e8591b09643b4431e153180127a439060600160405180910390a350506001805550505050565b61281b612a94565b73ffffffffffffffffffffffffffffffffffffffff82166128be576040517f08c379a000000000000000000000000000000000000000000000000000000000815260206004820152602e60248201527f455448205472616e73666572206661696c65643a20726563697069656e74206160448201527f646472657373206973207a65726f000000000000000000000000000000000000606482015260840161057b565b60008273ffffffffffffffffffffffffffffffffffffffff168260405160006040518083038185875af1925050503d8060008114612918576040519150601f19603f3d011682016040523d82523d6000602084013e61291d565b606091505b5050905080612988576040517f08c379a000000000000000000000000000000000000000000000000000000000815260206004820152601360248201527f455448205472616e73666572206661696c656400000000000000000000000000604482015260640161057b565b8273ffffffffffffffffffffffffffffffffffffffff167f0b3acf92f1f5629ffbf3357bece56f61d2715cabe6552915c0cf496943b208ff836040516129d091815260200190565b60405180910390a2505050565b6129e5612a94565b73ffffffffffffffffffffffffffffffffffffffff8116612a88576040517f08c379a000000000000000000000000000000000000000000000000000000000815260206004820152602660248201527f4f776e61626c653a206e6577206f776e657220697320746865207a65726f206160448201527f6464726573730000000000000000000000000000000000000000000000000000606482015260840161057b565b612a9181612e08565b50565b60005473ffffffffffffffffffffffffffffffffffffffff16331461119c576040517f08c379a000000000000000000000000000000000000000000000000000000000815260206004820181905260248201527f4f776e61626c653a2063616c6c6572206973206e6f7420746865206f776e6572604482015260640161057b565b60008115801590612b4557507f080000000000001100000000000000000000000000000000000000000000000182105b92915050565b60405173ffffffffffffffffffffffffffffffffffffffff8316602482015260448101829052612c1f9084907fa9059cbb00000000000000000000000000000000000000000000000000000000906064015b604080517fffffffffffffffffffffffffffffffffffffffffffffffffffffffffffffffe08184030181529190526020810180517bffffffffffffffffffffffffffffffffffffffffffffffffffffffff167fffffffff0000000000000000000000000000000000000000000000000000000090931692909217909152612f70565b505050565b60408051600580825260c08201909252606091600091906020820160a080368337019050509050600381600081518110612c6057612c6061348e565b6020026020010181815250508581600181518110612c8057612c8061348e565b6020026020010181815250508481600281518110612ca057612ca061348e565b6020026020010181815250508381600381518110612cc057612cc061348e565b6020026020010181815250508281600481518110612ce057612ce061348e565b602090810291909101015295945050505050565b60007f000000000000000000000000000000000000000000000000000000000000000073ffffffffffffffffffffffffffffffffffffffff16633e3aa6c5857ec73f681176fc7b3f9693986fd7b14581e8d540519e27400e88b8713932be01612d5e898789612e7d565b6040518463ffffffff1660e01b8152600401612d7c939291906134ef565b6020604051808303816000875af1158015612d9b573d6000803e3d6000fd5b505050506040513d601f19601f82011682018060405250810190612dbf91906134d6565b60408051848152602081018390529192508591859133917ffe87aeff807798d94d4b6c7f0b290f0a4d4994a3cb46faef49ab8a14495328b3910160405180910390a45050505050565b6000805473ffffffffffffffffffffffffffffffffffffffff8381167fffffffffffffffffffffffff0000000000000000000000000000000000000000831681178455604051919092169283917f8be0079c531659141344cd1fd0a4f28419497f9722a3daafe3b4186f6b6457e09190a35050565b60408051600380825260808201909252606091600091906020820184803683370190505090508481600081518110612eb757612eb761348e565b6020026020010181815250508381600181518110612ed757612ed761348e565b6020026020010181815250508281600281518110612ef757612ef761348e565b602090810291909101015290505b9392505050565b60405173ffffffffffffffffffffffffffffffffffffffff80851660248301528316604482015260648101829052612f6a9085907f23b872dd0000000000000000000000000000000000000000000000000000000090608401612b9d565b50505050565b6000612fd2826040518060400160405280602081526020017f5361666545524332303a206c6f772d6c6576656c2063616c6c206661696c65648152508573ffffffffffffffffffffffffffffffffffffffff1661307c9092919063ffffffff16565b805190915015612c1f5780806020019051810190612ff091906135d4565b612c1f576040517f08c379a000000000000000000000000000000000000000000000000000000000815260206004820152602a60248201527f5361666545524332303a204552433230206f7065726174696f6e20646964206e60448201527f6f74207375636365656400000000000000000000000000000000000000000000606482015260840161057b565b606061308b8484600085613093565b949350505050565b606082471015613125576040517f08c379a000000000000000000000000000000000000000000000000000000000815260206004820152602660248201527f416464726573733a20696e73756666696369656e742062616c616e636520666f60448201527f722063616c6c0000000000000000000000000000000000000000000000000000606482015260840161057b565b73ffffffffffffffffffffffffffffffffffffffff85163b6131a3576040517f08c379a000000000000000000000000000000000000000000000000000000000815260206004820152601d60248201527f416464726573733a2063616c6c20746f206e6f6e2d636f6e7472616374000000604482015260640161057b565b6000808673ffffffffffffffffffffffffffffffffffffffff1685876040516131cc9190613622565b60006040518083038185875af1925050503d8060008114613209576040519150601f19603f3d011682016040523d82523d6000602084013e61320e565b606091505b509150915061321e828286613229565b979650505050505050565b60608315613238575081612f05565b8251156132485782518084602001fd5b816040517f08c379a000000000000000000000000000000000000000000000000000000000815260040161057b919061363e565b60006020828403121561328e57600080fd5b5035919050565b73ffffffffffffffffffffffffffffffffffffffff81168114612a9157600080fd5b6000806000606084860312156132cc57600080fd5b83356132d781613295565b92506020840135915060408401356132ee81613295565b809150509250925092565b600081518084526020808501945080840160005b838110156133295781518752958201959082019060010161330d565b509495945050505050565b602081526000612f0560208301846132f9565b6000806000806080858703121561335d57600080fd5b843561336881613295565b966020860135965060408601359560600135945092505050565b6000806000806080858703121561339857600080fd5b5050823594602084013594506040840135936060013592509050565b600080604083850312156133c757600080fd5b8235915060208301356133d981613295565b809150509250929050565b6000806000606084860312156133f957600080fd5b505081359360208301359350604090920135919050565b60008060006060848603121561342557600080fd5b833561343081613295565b95602085013595506040909401359392505050565b6000806040838503121561345857600080fd5b823561346381613295565b946020939093013593505050565b60006020828403121561348357600080fd5b8135612f0581613295565b7f4e487b7100000000000000000000000000000000000000000000000000000000600052603260045260246000fd5b82815260406020820152600061308b60408301846132f9565b6000602082840312156134e857600080fd5b5051919050565b83815282602082015260606040820152600061350e60608301846132f9565b95945050505050565b84815283602082015260806040820152600061353660808301856132f9565b905082606083015295945050505050565b7f4e487b7100000000000000000000000000000000000000000000000000000000600052601160045260246000fd5b6000821982111561358957613589613547565b500190565b6000828210156135a0576135a0613547565b500390565b7f4e487b7100000000000000000000000000000000000000000000000000000000600052603160045260246000fd5b6000602082840312156135e657600080fd5b81518015158114612f0557600080fd5b60005b838110156136115781810151838201526020016135f9565b83811115612f6a5750506000910152565b600082516136348184602087016135f6565b9190910192915050565b602081526000825180602084015261365d8160408501602087016135f6565b601f017fffffffffffffffffffffffffffffffffffffffffffffffffffffffffffffffe016919091016040019291505056fea26469706673582212208cad34bf5afa5d301257b492df73d5cd894c6824177a206c68df67698cf24a3c64736f6c634300080e0033",
  "linkReferences": {},
  "deployedLinkReferences": {}
}